:100000000C94CA000C9460400C9491400C94C24033
:100010000C94F3400C9424410C9455410C9486416B
:100020000C94B7410C94F5000C94F5000C94F50079
:100030000C94DB040C94F5000C94F5000C949903DB
:100040000C94F5000C94F5000C94F5000C94F5005C
:100050000C94F5000C94F5000C94F5000C947403CA
:100060000C94F5000C945B420C94F5000C94F50094
:100070000C94F5000C94F5000C94F5000C94F5002C
:100080000C94F5000C94F5000C94F5000C94F5001C
:100090000C949C420C94F5000C94F5000C94003FD9
:1000A0000C94F5000C94F5000C94F5000C94F500FC
:1000B0000C94F5000C94F5000C94F5000C94F500EC
:1000C0000C94F5000C94F5000C94F5000021242705
:1000D0002A2D3033002225282B2E313400202326D0
:1000E000292C2F3205050505030303030101010433
:1000F00004030606060606060606010405010501B8
:1001000003020202020202010202050504040304C2
:1001100004010304070707010208101020408004AF
:1001200008102040020204081020408001028020B4
:100130004004200101020408102001408040800199
:1001400002080408800410040201000008090000ED
:10015000000000000000000000000000000000009F
:10016000000000000000000000000000000000008F
:100170000000000000000000000000000000C005BA
:100180007A087F08320966110F3E40447E4483445A
:1001900084445A4511241FBECFEFD1E2DEBFCDBF4C
:1001A00016E0A0E0B2E0E4E8FFE800E00BBF02C028
:1001B00007900D92AA38B107D9F71BBE11E1AAE842
:1001C000B6E001C01D92AA34B107E1F711E0C4E91D
:1001D000D1E004C02297FE010E94BC47CE37D10770
:1001E000C9F70E946D030C94C0470C9400000F9354
:1001F0001F93CF93DF93689F8001699F100D789FB5
:10020000100D1124C8010E941301EC01009729F080
:1002100060E070E0A8010E941502CE01DF91CF914D
:100220001F910F910895CF93DF93BC018230910508
:1002300010F462E070E0A0914811B0914911ED0115
:10024000E0E0F0E040E050E021C08881998186172D
:10025000970769F48A819B81309719F09383828391
:1002600004C09093491180934811FE0134C068176F
:10027000790738F44115510519F08417950708F4EA
:10028000AC01FE018A819B819C01E9012097E9F67E
:1002900041155105A9F1CA01861B970B049708F473
:1002A000BA01E0E0F0E02AC08D919C91119784178B
:1002B0009507F9F46417750781F412968D919C9156
:1002C0001397309719F09383828304C09093491158
:1002D00080934811FD0132964CC0CA01861B970BD2
:1002E000FD01E80FF91F6193719302978D939C9321
:1002F00040C0FD01828193819C01D9011097A1F634
:100300008091461190914711892B41F4809181068B
:1003100090918206909347118093461140918306F5
:10032000509184064115510541F44DB75EB7809157
:100330007F0690918006481B590B20914611309101
:100340004711CA01821B930B8617970780F0AB01F8
:100350004E5F5F4F8417950750F0420F531F509325
:10036000471140934611F9016193719302C0E0E097
:10037000F0E0CF01DF91CF910895CF93DF93009705
:1003800009F450C0EC0122971B821A82A0914811F7
:10039000B0914911109709F140E050E0AC17BD074A
:1003A00008F1BB83AA83FE0121913191E20FF31F73
:1003B000AE17BF0779F48D919C911197280F391FC3
:1003C0002E5F3F4F3983288312968D919C9113970E
:1003D0009B838A834115510571F4D0934911C093D1
:1003E000481120C012968D919C911397AD010097F2
:1003F00011F0DC01D3CFFA01D383C2832191319173
:10040000E20FF31FCE17DF0769F488819981280F67
:10041000391F2E5F3F4FFA01318320838A819B81F0
:1004200093838283DF91CF910895DC0101C06D93A6
:1004300041505040E0F708952F923F924F925F92C3
:100440006F927F928F929F92AF92BF92CF92DF92E4
:10045000EF92FF920F931F9381E00E9412059093F9
:100460008B0680938A06AA2797FDA095BA2FBC0118
:10047000CD010E945B4623E333E343E550E40E9451
:10048000E74620E030EC4FE754E40E94C04520E00E
:1004900030E040E05FE30E945B4520E030E048EC64
:1004A00052E40E94E74660938C0670938D06809319
:1004B0008E0690938F060E9428461B012C0180E82F
:1004C0000E941205AA2797FDA095BA2FBC01CD0165
:1004D0000E945B466093900670939106809392060B
:1004E000909393060E9428463B014C0184E00E94B1
:1004F0001205AA2797FDA095BA2FBC01CD010E9435
:100500005B4660939406709395068093960690934D
:10051000970620E030E44CE955E40E94E74620E0ED
:1005200030EC4FE754E40E94C04520E030E048E45E
:1005300054E40E945B450E942846DC01CB016FE138
:1005400070E00E946A47162FF72E20929A0660925A
:100550009B0660939C0681E090E064EB70E00E9453
:10056000F700FC0190939906809398061086E45852
:10057000FF4F81E08083129295ECC92E96E0D92E30
:10058000C60160E072E00E94E70887ECA82E86E0D2
:10059000B82E6091980670919906C50143E152E02A
:1005A00020E00E94EE306091980670919906C50196
:1005B00048E152E02AE936E001E0EE240E942832C8
:1005C0006091980670919906C5010E94493CC60148
:1005D00069E272E00E94E708C601B1010E94B90811
:1005E000C601B3010E94B908C601612F7F2D0E9488
:1005F000B90860919A06772767FD7095C6010E9439
:10060000B90860919B06772767FD7095C6010E9427
:10061000B90860919C06772767FD7095C6010E9416
:10062000B90880919806909199060E94BD01109298
:1006300099061092980660E177E280E090E00E94CF
:10064000D6031F910F91FF90EF90DF90CF90BF9056
:10065000AF909F908F907F906F905F904F903F9062
:100660002F9008950F931F9307EC16E0C80161E0E7
:1006700041E021E00E943309C8010E94C83DC80141
:1006800062E144E30E94C72EC801609185060E9482
:100690009730C80166E876E00E94C72DC80160E087
:1006A0000E947330C8010E944B2F0EE916E0C8016A
:1006B0000E940D08C80165E372E00E94390684ECCF
:1006C00096E060E00E94100864E670E080E090E050
:1006D0000E94D6031F910F9108950E941E040E944C
:1006E00032030E941C02FDCF1F920F920FB60F9291
:1006F00011248F939F93AF93BF938091BE0E9091DF
:10070000BF0EA091C00EB091C10E0196A11DB11DEA
:100710008093BE0E9093BF0EA093C00EB093C10EF7
:10072000BF91AF919F918F910F900FBE0F901F902F
:1007300018951F920F920FB60F9211248F939F93CB
:10074000AF93BF938091C20E9091C30EA091C40E3F
:10075000B091C50E0196A11DB11D8093C20E90935C
:10076000C30EA093C40EB093C50EBF91AF919F91DD
:100770008F910F900FBE0F901F9018956091BE0E35
:100780007091BF0E8091C00E9091C10E27E0660F50
:10079000771F881F991F2A95D1F72EE330E040E09C
:1007A00050E00E947D47CA01B9010895AF92BF92FF
:1007B000CF92DF92EF92FF920F931F935B016C0138
:1007C0006091BE0E7091BF0E8091C00E9091C10ECF
:1007D00047E0660F771F881F991F4A95D1F72EE3D0
:1007E00030E040E050E00E947D4779018A0160914D
:1007F000BE0E7091BF0E8091C00E9091C10E37E079
:10080000660F771F881F991F3A95D1F72EE330E0C6
:1008100040E050E00E947D472E193F09400B510BEC
:100820002A153B054C055D0510F31F910F91FF90B4
:10083000EF90DF90CF90BF90AF900895789484B7F9
:10084000877F84BF1092BE0E1092BF0E1092C00E12
:100850001092C10E84B5826084BD84B5816084BD70
:1008600085B5826085BD85B5816085BDEEE6F0E029
:10087000808181608083E1E8F0E080818260808314
:10088000808181608083E0E8F0E080818160808306
:10089000E1EBF0E0808184608083E1E9F0E0808139
:1008A00084608083E0EBF0E0808181608083E0E918
:1008B000F0E0808181608083E4E6F0E080818E7FDB
:1008C0008083ECE7F0E080818F7780838081806493
:1008D0008083EAE7F0E080818460808380818260A9
:1008E00080838081806880831092C1001092C9004B
:1008F000089590919D06982B90939D0680FF32C09D
:10090000809164008E7F8093640080917C008F775B
:1009100080937C0080917C00806480937C00809137
:100920007A00846080937A0080917A00826080935C
:100930007A0080917A00806880937A0080916400C8
:100940008F7780936400809164008B7F8093640034
:10095000809164008D7F80936400809165008E7F1C
:10096000809365000895282F209590919D069223ED
:1009700090939D0680FF1EC080917A008F778093B0
:100980007A008091640081608093640080916400AB
:100990008068809364008091640084608093640028
:1009A0008091640082608093640080916500816022
:1009B0008093650008951F920F920FB60F920BB6A9
:1009C0000F9211242F933F934F935F936F937F93D5
:1009D0008F939F93AF93BF93EF93FF93F89481E02E
:1009E00080938806E0E6F0E08081806880838081E3
:1009F0008F7B808383E060E00E944B057894FF91B9
:100A0000EF91BF91AF919F918F917F916F915F9186
:100A10004F913F912F910F900BBE0F900FBE0F90F3
:100A20001F90189590917C008F70907F892B8093F8
:100A30007C0080917A00806480937A0080917A00B3
:100A400086FDFCCF2091780040917900942F80E0C2
:100A500030E0282B392BC9010895282F30E0C90137
:100A6000895E9E4FFC0194912C513F4FF901849176
:100A7000882381F0E82FF0E0E453FF4FE491F0E0A9
:100A8000662329F48081909589238083089580814D
:100A9000892B80830895482F50E0CA01865B9E4FC2
:100AA000FC012491CA01895E9E4FFC0194914C5136
:100AB0005F4FFA0134913323C1F1222331F1233006
:100AC00021F4809180008F7705C0243031F480912B
:100AD00080008F7D8093800018C0213019F484B588
:100AE0008F7704C0223021F484B58F7D84BD0DC082
:100AF000263021F48091B0008F7705C0273029F48B
:100B00008091B0008F7D8093B000E32FF0E0EC5235
:100B1000FF4FE491F0E0662329F4808190958923CA
:100B2000808308958081892B80830895FC01138A36
:100B3000148A158A168A178A108E118E128E138EB9
:100B4000148E158E168E178E10A211A212A213A249
:100B500014A20895262F862F6AE00E944A47492F43
:100B600030E0C901841B91096AE070E00E946A4785
:100B7000E4E0660F771FEA95E1F7842F862B08954E
:100B80000895DF92EF92FF920F931F938C01D62E60
:100B9000ACEAEA2EABE0FA2EC70168E670E00E94EC
:100BA000EE3DC7016D2D0E94103E0D0D111DC701B8
:100BB000F80160810E94103EC7010E94373E1F91DC
:100BC0000F91FF90EF90DF9008958091AD068C7F9C
:100BD0008093AD068EE996E06FE00E94C10508950E
:100BE0000F931F93CF93DF93EC018CEA9BE068E6B1
:100BF00070E00E94EE3D8CEA9BE060E070E00E94B5
:100C0000343ECE01688D0E94AA058883CE016F898B
:100C10000E94AA058983CE016E890E94AA058A8353
:100C20008D898B83CE01698D0E94AA058C83CE01AC
:100C30006C890E94AA058D83CE016B890E94AA054A
:100C40008E8300E010E0FE01E00FF11F8CEA9BE0D4
:100C500060810E94103E0F5F1F4F0730110599F70A
:100C60008CEA9BE00E94373EDF91CF911F910F915C
:100C70000895DC01FB0121812053808180533AE0FB
:100C8000839FC0011124280F53962C9353972481DE
:100C9000205383818053839FC0011124280F5496D1
:100CA0002C9354972781205386818053839FC001C2
:100CB0001124280F59962C9359972285205381850A
:100CC0008053839FC0011124280F55962C9355976C
:100CD0002585205384858053839FC0011124280FCC
:100CE00056962C9356972089205387858053839F4F
:100CF000C0011124280F57962C935797238920530E
:100D000082898053839FC0011124280F58962C9309
:100D10005897CD010E94F0050895CF92DF92EF928F
:100D2000FF921F93CF93DF937C01162F8CEA9BE0F9
:100D300068E670E00E94EE3D8CEA9BE060E070E0C7
:100D40000E94343E8CEA9BE00E94373E8CEA9BE096
:100D500068E670E042E150E00E94583EC0E0D0E01A
:100D6000C12EDD241AE009C18CEA9BE00E94F83D07
:100D7000882309F402C18CEA9BE00E94FE3D282FE3
:100D8000F701EC0FFD1F8083C630D10509F482C046
:100D9000C730D105B8F4C230D10509F44EC0C33014
:100DA000D10538F4209769F1C130D10509F0E4C0CC
:100DB00036C0C430D10509F451C0C530D10508F0A2
:100DC0005BC049C0CA30D10509F49BC0CB30D10506
:100DD00058F4C830D10509F478C090E02F70C930BC
:100DE000D10508F081C064C0CC30D10509F4A7C09A
:100DF000CC30D10508F494C0CD30D10509F0BCC089
:100E0000ADC090E0E4E095958795EA95E1F7819F84
:100E1000C00111242F70280FF701208FADC090E082
:100E200074E0959587957A95E1F7819FC00111242B
:100E30002F70280FF701278B9FC090E064E09595F5
:100E400087956A95E1F7819FC00111242F70280FC3
:100E5000F701268B91C0F701858B8EC090E054E09E
:100E6000959587955A95E1F7819FC00111242F70C0
:100E7000280FF701218F80C090E044E09595879579
:100E80004A95E1F7819FC00111242F70280FF701C7
:100E9000248B72C090E034E0959587953A95E1F700
:100EA000819FC00111242F70280FF701238B64C08C
:100EB000B4E095958795BA95E1F78770819FC00159
:100EC0001124280FF701228F57C090E0A4E09595D8
:100ED0008795AA95E1F78770819FC00111242F7033
:100EE000280FF701238F48C0F4E095958795FA9570
:100EF000E1F78370819FC0011124280FF701248F2F
:100F00003BC090E0E4E095958795EA95E1F7837022
:100F1000819FC00111242F70280FF701258F2CC04D
:100F200090E074E0959587957A95E1F78770819FB9
:100F3000C00111242F70280FF701268F1DC090E0EB
:100F400064E0959587956A95E1F78370819FC0016C
:100F500011242F70280FF701278F0EC090E054E066
:100F6000959587955A95E1F78370819FC00111246B
:100F70002F70280FF70120A32196CC16DD0608F06C
:100F8000F3CEDF91CF911F91FF90EF90DF90CF9044
:100F900008950F931F93CF93DF93EC01042F6DA35C
:100FA00080E361E00E942D051DA1113019F0103180
:100FB00099F40DC080E361E00E944B05013019F403
:100FC00082E08A8B09C0002339F41A8B05C080E3C4
:100FD00060E00E944B051A8ADF91CF911F910F911B
:100FE0000895CF93DF93EC0161E040E00E94C907D0
:100FF0008091AC0B882321F48CEA9BE00E945B3E3D
:10100000CE010E94E505CE010E949605CE016DE05D
:101010000E948D06DF91CF9108950E94F1070895F7
:10102000662319F06130A1F40FC08AE161E00E94EB
:101030004B058091B006882359F48EE996E061E073
:1010400041E00E94C90708958AE160E00E944B05D3
:10105000089583E061E00E942D0582E060E00E9437
:101060002D0588E061E00E942D058AE061E00E9484
:101070002D0589E061E00E942D0587E060E00E9477
:101080002D0586E061E00E942D0584E061E00E946C
:101090002D0585E061E00E942D058BE061E00E9456
:1010A0002D058AE161E00E942D0583E060E00E9449
:1010B0004B0588E060E00E944B058AE060E00E94FA
:1010C0004B0589E060E00E944B0586E060E00E94ED
:1010D0004B0584E060E00E944B0585E060E00E94E3
:1010E0004B058BE060E00E944B058AE160E00E94C6
:1010F0004B05089584EC96E00E942908089510920B
:10110000C50608950F931F938C018DE0F80160814F
:101110000E94DD428AE0F80160810E94DD421F9159
:101120000F910895EF92FF920F931F93CF93DF9348
:10113000EC017A018B0177FF0CC08DE268810E947F
:10114000DD4210950095F094E094E11CF11C011D26
:10115000111DC801B7012AE030E040E050E00881ED
:101160000E940443DF91CF911F910F91FF90EF9068
:1011700008950F931F938C01AB01662757FD60956F
:10118000762F0E949208C8010E9482081F910F9139
:1011900008950F931F93FC01DA018B01211531058E
:1011A00029F4842F60810E94DD420EC02A3031056F
:1011B00019F40E94920808C030E040E050E0BD0100
:1011C000C80100810E9404431F910F9108950F935D
:1011D0001F938C01CB01F80160810E94EE42C8018F
:1011E0000E9482081F910F910895FC0180810E9446
:1011F00047420895FC0180810E940C420895FC0141
:1012000080810E94E8410895FC0160E076E980E079
:1012100090E040810E94C44386E161E00E942D0578
:101220000895CF93DF93EC016983623099F06330C6
:1012300049F06130A1F40E94040986E161E00E9456
:101240004B050DC086E160E00E944B0588810E943D
:10125000A64305C08BE199E061E00E94CC30DF91AC
:10126000CF91089508950F931F938C0103521E4F41
:10127000F801619341938F01208307591140F801D0
:101280001082055F1F4FF8011082045F1F4FF801A5
:1012900010820E511F4FF80110820D51104083E152
:1012A000F80181938F0188E880830E5F1F4FF8015A
:1012B00011928F011082095E1F4F89E1F80180832E
:1012C0000D5F1F4F8FE1F80181938F018EEF8083B7
:1012D0000A5D1F4FF801119284E081938F0188E22B
:1012E0008083095F1F4FF801108207521F4FF801DA
:1012F0001192119211928CE281931192119211929A
:1013000011928F01108203571040F8011182108250
:101310000C5C1F4FF80111921192119211921192CF
:10132000119211921192119211928F0110821182D9
:1013300012821382075D1F4FF80111928F011082F4
:101340000F56104092E0F801908300591F4F81E042
:10135000F80180830F561040F801919391938F010B
:1013600090830C5D1140C8010E949F12C8010E9429
:101370004D111F910F9108950F931F93CF93DF93FA
:10138000DC018B01EC01CC5EDD4F1982188240E05C
:10139000BE0106C04F5F2F5F3F4FFB0131832083AB
:1013A000FB0120813181F801E20FF31F8081882346
:1013B00089F7469583E090E09983888390E0ED017A
:1013C000CC5EDD4F50E00BC0FD01E20FF31FEE5D80
:1013D000FD4F8081980F2F5F3F4F398328832881ED
:1013E00039812417350780F3892F8095A40FB51F05
:1013F000AF5DBD4F8C93DF91CF911F910F910895F9
:10140000AF92BF92CF92DF92EF92FF920F931F9312
:10141000CF93DF937C018B0106551F4FD8018C9130
:101420000A5A1040F801E855FF4F813009F024C1F5
:10143000C22EDD24DA01AC0DBD1D83E28C938081C8
:10144000813009F446C0813020F0823009F038C282
:10145000AAC011961C92119701571F4FF801819154
:101460008F0112968C931297808100591040139629
:101470008C931397F701EC5EFD4F11821082EF0100
:10148000F6E1CF2EF2E0DF2ECE0CDF1CB701685E56
:101490007D4FAD010FC0FA01E20FF31FA00FB11F86
:1014A000A20FB31F1C968C91848388819981019629
:1014B0009983888328813981F601A081B181FB015C
:1014C0008081918101968A1B9B0B2817390718F39D
:1014D000F7C111968C93B7016C5E7D4FDB011D92B5
:1014E0001C92EB0110C0FA01EA0FFB1FEC0DFD1D71
:1014F000A00FB11FA557BF4F8C918283888199811E
:10150000019699838883A881B981A430B10558F3E5
:10151000FB0111821082E701CC5EDD4F10C0FA01A1
:10152000EA0FFB1FEC0DFD1DA00FB11FA957BF4F08
:101530008C91868388819981019699838883A8817B
:10154000B981A430B10558F319821882E701CC5E45
:10155000DD4FE6E1AE2EE2E0BE2EAE0CBF1C9701E1
:10156000285E3D4F11C0FA01E60FF71FEC0DFD1D7F
:10157000A00FB11FA60FB71F1C968C918287888180
:10158000998101969983888368817981F501A08189
:10159000B181F9018081918101968A1B9B0B6817AB
:1015A000790708F38DC111968C93C0E0D0E0D70184
:1015B000AC5EBD4F06C0E9016F5F7F4F11967C9313
:1015C0006E936D917C911197F801E60FF71FEF561E
:1015D000FF4F80819E012F5F3F4F833261F71D9245
:1015E0001C92E701CC5EDD4F10C0FA01EA0FFB1F31
:1015F000EC0DFD1DA00FB11FAF56BF4F8C91828324
:1016000088819981019699838883A881B981A217DD
:10161000B30758F319821882E701CC5EDD4F76E1FB
:10162000A72E72E0B72EAE0CBF1C88E192E0E80E48
:10163000F91E13C0FA01E60FF71FE20FF31FEC0DBE
:10164000FD1DA00FB11FA60FB71F1C968C918283A2
:101650008881998101969983888368817981F501D0
:10166000A081B181F7018081918101968A1B9B0B3A
:1016700068177907F8F224C18081813009F446C0E7
:10168000813020F0823009F01BC1AEC030E0FA0199
:10169000E20FF31F108201571F4FD8018D918D016A
:1016A00081838C91005910408283F701EC5EFD4FDD
:1016B00011821082EF0166E1C62E62E0D62ECE0CBA
:1016C000DF1CE8E1F2E0EE0EFF1E11C0FA01E60FAA
:1016D000F71FE20FF31FA00FB11FA60FB71F1C9635
:1016E0008C9183838881998101969983888368810D
:1016F0007981F601A081B181F70180819181019604
:101700008A1B9B0B6817790708F3DAC030E0FA01EF
:10171000E20FF31F8083B7016C5E7D4FDB011D92EA
:101720001C92EB0110C0FA01EA0FFB1FE20FF31F3E
:10173000A00FB11FA557BF4F8C91818388819981DC
:10174000019699838883A881B981A430B10558F3A3
:10175000FB0111821082E701CC5EDD4F10C0FA015F
:10176000EA0FFB1FE20FF31FA00FB11FA957BF4FD6
:101770008C91858388819981019699838883A8813A
:10178000B981A430B10558F319821882E701CC5E03
:10179000DD4F96E1C92E92E0D92ECE0CDF1C88E1F8
:1017A00092E0E80EF91E11C0FA01E60FF71FE20FF2
:1017B000F31FA00FB11FA60FB71F1C968C91818736
:1017C0008881998101969983888368817981F6015E
:1017D000A081B181F7018081918101968A1B9B0BC9
:1017E0006817790708F36CC0C22EDD24FA01EC0DEE
:1017F000FD1D8083C0E0D0E0D701AC5EBD4F06C0C8
:10180000E9016F5F7F4F11967C936E936D917C9190
:101810001197F801E60FF71FEF56FF4F80819E01E9
:101820002F5F3F4F833261F71D921C92E701CC5E20
:10183000DD4F10C0FA01EA0FFB1FEC0DFD1DA00FDC
:10184000B11FAF56BF4F8C918183888199810196DA
:1018500099838883A881B981A217B30758F31982A5
:101860001882E701CC5EDD4F86E1A82E82E0B82E1B
:10187000AE0CBF1C88E192E0E80EF91E13C0FA011D
:10188000E60FF71FE20FF31FEC0DFD1DA00FB11FB8
:10189000A60FB71F1C968C91818388819981019630
:1018A0009983888368817981F501A081B181F701ED
:1018B0008081918101968A1B9B0B68177907F8F24A
:1018C000DF91CF911F910F91FF90EF90DF90CF901C
:1018D000BF90AF9008953F924F925F926F927F9228
:1018E0008F929F92AF92BF92CF92DF92EF92FF9230
:1018F0000F931F93DF93CF9300D000D0CDB7DEB707
:101900006B014A017901AA24A39410E022E730E098
:10191000C20ED31E21E3422E9DE7792E83E3382E9B
:10192000BEE56B2EADE55A2E30C1D401A60FB71F10
:101930008C91813111F090E04AC04C92F701808186
:101940008F5F80838C917C926F5F7F4F9401260F15
:10195000371F3C832B8361507040FB013296FA8322
:10196000E98320C0EB81FC81B180418349815A81A8
:101970004F5F5F4F3296FC83EB8329813A812E5F64
:101980003F4F3A832983F70180819801280F311D49
:10199000C901F60120813181820F931F4817590731
:1019A000A8F48B2DEB81FC8140818083F70180813D
:1019B0009801280F311DC901F60120813181820F64
:1019C000931F29813A812817390760F291E08C91A1
:1019D000833109F04DC0992309F04AC03C92F701C8
:1019E00080818F5F80838C917C926F5F7F4F9401A9
:1019F000260F371F3C832B8361507040FB013296CA
:101A0000FA83E98320C0EB81FC81B1804183498165
:101A10005A814F5F5F4F3296FC83EB8329813A8175
:101A20002E5F3F4F3A832983F70180819801280F69
:101A3000311DC901F60120813181820F931F4817A2
:101A40005907A8F48B2DEB81FC8140818083F7013D
:101A500080819801280F311DC901F6012081318153
:101A6000820F931F29813A812817390760F291E08C
:101A70008C918E3709F04DC0992309F04AC06C92C1
:101A8000F70180818F5F80838C917C926F5F7F4FA5
:101A90009401260F371F3C832B8361507040FB015C
:101AA0003296FA83E98320C0EB81FC81B1804183C7
:101AB00049815A814F5F5F4F3296FC83EB832981C6
:101AC0003A812E5F3F4F3A832983F7018081980145
:101AD000280F311DC901F60120813181820F931F2A
:101AE00048175907A8F48B2DEB81FC814081808336
:101AF000F70180819801280F311DC901F60120816D
:101B00003181820F931F29813A812817390760F2AA
:101B100091E02C912D37C1F59923B1F55C92F70135
:101B200080818F5F80838C912C936F5F7F4FF40156
:101B3000E60FF71F6F5F7F4F17C0B1804183AB0186
:101B40004F5F5F4F32966E5F7F4FD7018C91980148
:101B5000280F311DC901D6012D913C91820F931F91
:101B60004817590788F48B2D40818083D7018C91C9
:101B70009801280F311DC901D6012D913C91820F8A
:101B8000931F68177907C8F2A3946A2D70E0F701D4
:101B900080819801280F311DC901D6012D913C91FA
:101BA000820F931F6817790708F4BFCE0F900F902C
:101BB0000F900F90CF91DF911F910F91FF90EF90B9
:101BC000DF90CF90BF90AF909F908F907F906F905D
:101BD0005F904F903F900895DF92EF92FF920F93A6
:101BE0001F93CF93DF93890180E090E0F3E1DF2E34
:101BF000EEE7EE2E31E1F32E37C02F5F3F4F9C9181
:101C00009D3731F01196319624173507B0F32DC06A
:101C10002417350750F5E9012196E60FF71F81815A
:101C2000833361F0843318F4813369F405C08D3552
:101C300049F08E3541F404C0FC9205C0DC9203C02B
:101C4000EC9201C09C9341505040F901E00FF11F0C
:101C5000E60FF71F02C0818180832F5F3F4F3196CF
:101C6000CE0124173507B8F39C012417350738F443
:101C7000F901E00FF11FDB01AE0FBF1FC0CFDF91F5
:101C8000CF911F910F91FF90EF90DF900895EF9209
:101C9000FF920F931F93CF93DF938C01EB017A0197
:101CA000FC01EC5EFD4F2D5F3F4F318320832350BD
:101CB0003040A0E0B0E0AF010BC0FE01E60FF71F1F
:101CC0008081A80FB11D6F5F7F4FFA017183608320
:101CD000FA01608171816E157F0578F3AF3FB10520
:101CE00021F0AF3F11F081E008C008521E4FC20F33
:101CF000D31F8C81F801808380E0DF91CF911F9109
:101D00000F91FF90EF900895EF92FF920F931F9322
:101D1000CF93DF93EC01C052DE4FE8808DEEE80EEA
:101D200023978881CD5DD140813009F0C9C0CD5D58
:101D3000DE4FF880C352D140FA948E010C5E1D4FE5
:101D4000D8011D921C92B8012F2D30E087E290E05F
:101D5000289FA001299F500D389F500D11244C0F32
:101D60005D1F11C0FA01EA0FFB1FE05AFF4FAC0FD5
:101D7000BD1FAE51BE4F8C918083FB01808191814C
:101D8000019691838083FB01A081B181A230B105CE
:101D900048F3D8011D921C92AE014C5E5D4F2F2D71
:101DA00030E087E290E0289FB001299F700D389FB6
:101DB000700D11246C0F7D1F11C0FB01EA0FFB1F7A
:101DC000EE59FF4FAC0FBD1FAC51BE4F8C918083BD
:101DD000FA0180819181019691838083FA01A0812B
:101DE000B181A430B10548F311821082BE016C5E4E
:101DF0007D4F2F2D30E087E290E0289FA001299FA2
:101E0000500D389F500D11244C0F5D1F12C0FA0168
:101E1000EA0FFB1FEA59FF4FAC0FBD1FA851BE4F81
:101E20008C918083DB018D919C91119701968D930C
:101E30009C93FB01A081B181A430B10540F387E2FE
:101E400090E0289FF001299FF00D389FF00D11249C
:101E5000EC0FFD1FEA57FF4FC451DE4F8881CC5E67
:101E6000D1408083E658F040AE0140525E4FDA0127
:101E70008D919C910D9720F1DB011D921C929E018A
:101E80002C5E3D4FBA01AF0111C0FA01EA0FFB1FF2
:101E9000E659FF4FAC0FBD1FA351BE4F8C918083FD
:101EA000F90180819181019691838083F901A0815C
:101EB000B181FB01808191810C97A817B90728F3A4
:101EC000C352DE4F8881CD5DD1408250843008F00E
:101ED00047C1CD5DDE4FF880C352D140FA948E01E8
:101EE0000C5E1D4FD8011D921C92B8012F2D30E0C1
:101EF00087E290E0289FA001299F500D389F500D48
:101F000011244C0F5D1F11C0FA01EA0FFB1FE05AAC
:101F1000FF4FAC0FBD1FAE51BE4F8C918083FB01B4
:101F200080819181019691838083FB01A081B181A1
:101F3000A230B10548F3D8011D921C92AE014C5E4F
:101F40005D4F2F2D30E087E290E0289FB001299F60
:101F5000700D389F700D11246C0F7D1F11C0FB0197
:101F6000EA0FFB1FEE59FF4FAC0FBD1FAC51BE4F28
:101F70008C918083FA018081918101969183808385
:101F8000FA01A081B181A430B10548F31182108219
:101F9000AE014C5E5D4F2F2D30E087E290E0289F30
:101FA000B001299F700D389F700D11246C0F7D1F9B
:101FB00012C0FB01EA0FFB1FEA59FF4FAC0FBD1F18
:101FC000A851BE4F8C918083DA018D919C9111971D
:101FD00001968D939C93FA01A081B181A430B10543
:101FE00040F311821082AE014C5E5D4F0E2D10E069
:101FF0002F2D30E087E290E0289FB001299F700DDF
:10200000389F700D11246C0F7D1F12C0FB01EA0F69
:10201000FB1FE659FF4FAC0FBD1FA451BE4F8C9163
:102020008083DA018D919C91119701968D939C93F9
:10203000FA01A081B181A017B10740F3118210828B
:10204000BE016C5E7D4F2F2D30E087E290E0289F2F
:10205000A001299F500D389F500D11244C0F5D1F7A
:1020600014C0FA01EA0FFB1FE258FF4FAC0FBD1F6F
:10207000A00FB11FA351BE4F8C918083DB018D91C6
:102080009C91119701968D939C93FB01A081B18146
:10209000A230B10530F387E290E0289FD001299F5C
:1020A000B00D389FB00D1124AC0FBD1FA058BF4F0D
:1020B000FE01EE0DF11DE151FE4F81918D93808166
:1020C0008C93A158B040FB0111821082AE014C5E8E
:1020D0005D4FBD0114C0FB01EA0FFB1FEE57FF4F20
:1020E000AC0FBD1FA00FB11FAF50BE4F8C918083AE
:1020F000DA018D919C91119701968D939C93FA0131
:10210000A081B181A230B10530F311821082BE01ED
:102110006C5E7D4F87E290E0289FA001299F500DC3
:10212000389F500D11244C0F5D1F14C0FA01EA0FA7
:10213000FB1FEC57FF4FAC0FBD1FA00FB11FAD50E1
:10214000BE4F8C918083DB018D919C9111970196FC
:102150008D939C93FB01A081B181A230B10530F336
:10216000DF91CF911F910F91FF90EF900895CF9243
:10217000DF92EF92FF920F931F93CF93DF93EC01C7
:102180006B017A01B901FC01EC5EFD4F0D5F1F4F41
:102190001183008303501040A0E0B0E09F010BC00A
:1021A000F601E40FF51F8081A80FB11D4F5F5F4F4F
:1021B000F90151834083F901408151814617570746
:1021C00078F3AF3FB10519F0AF3F09F05AC0F601FF
:1021D000E00FF11F9581D70115968C9115979817EF
:1021E00009F04FC0968116968C91981709F049C056
:1021F0009B01201B310B2930310529F4878188236D
:1022000009F442C03EC087818823D9F5FE01EC5E07
:10221000FD4F11821082BF012950304012C0FE01D3
:10222000E40FF51FEE51FE4FD601A40FB51FA00F0E
:10223000B11F18968C9180834F5F5F4FFB015183D4
:102240004083DB014D915C914217530740F3C0522C
:10225000DE4F39832883C05ED140F70185818E34FB
:1022600091F48681843479F42230310530F0FE0116
:10227000ED5DFE4F80818F5F8083CE010E94840ED2
:1022800002C081E001C080E0DF91CF911F910F91EA
:10229000FF90EF90DF90CF900895FC01EC5EFD4F32
:1022A00011821082DF010BC0FC01E20FF31FEE5D13
:1022B000FD4F10822F5F3F4F11963C932E932D912F
:1022C0003C9111972E31310578F308950895CF92FE
:1022D000DF92EF92FF920F931F93CF93DF936C01E6
:1022E000FC01EC5EFD4F118210828F01E62EFF246F
:1022F000E701CC0FDD1FCC0FDD1FCE0DDF1D1CC095
:10230000EC0FFD1F3B96EE0FFF1FEC0DFD1D8081B6
:1023100091810E94BD01D8018D919C911197FE0180
:10232000E80FF91F3B96EE0FFF1FEC0DFD1D11820C
:10233000108201968D939C93D801ED91FC91E5302C
:10234000F105F0F28701000F111F0C0D1D1D075B39
:102350001F4FD801ED91FC9115AA16AA17AA10AE2D
:10236000CF010E94BD01F80111821082F601ED5AE1
:10237000FF4F808181508083DF91CF911F910F911A
:10238000FF90EF90DF90CF900895AF92BF92CF92E1
:10239000DF92FF920F931F93CF93DF936C01FF2483
:1023A00060E070E08C010C5E1D4FD8016D937C9352
:1023B000EB01AA96CC0FDD1FCC0DDD1D23C05F0104
:1023C0000894A11CB11CA881B981A555BF4FBB962B
:1023D000EE0FFF1FEC0DFD1D0190F081E02DE55586
:1023E000FF4F2D913D914D915C9180819181A28112
:1023F000B38182179307A407B50754F4F394F80147
:10240000B182A082D801ED91FC91E430F105B8F2DF
:10241000B4E0FB1621F4F62E65E070E002C0F62E63
:10242000F3946F5F7F4F6530710508F4BECF0F2DB9
:1024300010E0065D1F4F000F111F0C0D1D1DF80150
:10244000808191810E94BD01D8011D921C928F2D27
:10245000DF91CF911F910F91FF90DF90CF90BF90B0
:10246000AF900895AF92BF92CF92DF92FF920F93F9
:102470001F93CF93DF936C01FF2460E070E08C0129
:102480000C5E1D4FD8016D937C93EB01AA96CC0F87
:10249000DD1FCC0DDD1D23C05F010894A11CB11C04
:1024A000A881B981A555BF4FBB96EE0FFF1FEC0D5C
:1024B000FD1D0190F081E02DE555FF4F2D913D91DF
:1024C0004D915C9180819181A281B3812817390758
:1024D0004A075B0754F4F394F801B182A082D80153
:1024E000ED91FC91E430F105B8F2B4E0FB1621F473
:1024F000F62E65E070E002C0F62EF3946F5F7F4F1A
:102500006530710508F4BECF0F2D10E0065D1F4F3A
:10251000000F111F0C0D1D1DF801808191810E947B
:10252000BD01D8011D921C928F2DDF91CF911F917B
:102530000F91FF90DF90CF90BF90AF9008950F93D1
:102540001F93CF93DF938C01FC01EC5EFD4F118252
:102550001082EF0116C0BA96EE0FFF1FE00FF11FB9
:10256000808191810E94BD01888199818A96FC01B8
:10257000EE0FFF1FE00FF11F1182108289979983E0
:102580008883E881F981E530F10528F3DF91CF9167
:102590001F910F910895AF92BF92CF92DF92EF9269
:1025A000FF920F931F93CF93DF93EC0109E4A02ECA
:1025B000B12CA80EB91EEE24FF2414E1C12E12E0A6
:1025C000D12EC80ED91ED6011D921C928701000F74
:1025D000111F000F111F0E0D1F1D1CC0E00FF11F5A
:1025E0003B96EE0FFF1FEC0FFD1F808191810E9433
:1025F000BD01F60180819181F801E80FF91F3B963A
:10260000EE0FFF1FEC0FFD1F118210820196D60105
:102610008D939C93D601ED91FC91E530F105F0F29C
:10262000D501ED91FC9115AA16AA17AA10AECF01FB
:102630000E94BD01F501119211925F010894E11C05
:10264000F11CF5E0EF16F10409F0BDCFCD5ADF4FD4
:102650001882CC50DE4F188222961882DF91CF91DB
:102660001F910F91FF90EF90DF90CF90BF90AF90B0
:102670000895AF92BF92CF92DF92EF92FF920F93A5
:102680001F93CF93DF93EC01FC01E95BFD4F1082B8
:1026900060E070E014E1A12E12E0B12EA80EB91E88
:1026A0007F01D5016D937C938B01000F111F0C0FDF
:1026B0001D1F075B1F4F28C0D8018D919C916F0192
:1026C0000894C11CD11CF601EE0FFF1FEC0FFD1F7B
:1026D000E75BFF4F0190F081E02DDC01D5962D9155
:1026E0003D914D915C91D89785A996A9A7A9B0ADC8
:1026F000281739074A075B076CF4F70180818F5F61
:102700008083D501CD92DC92D501ED91FC91E4302E
:10271000F10590F2F7018081843021F4608365E057
:1027200070E004C0862F8F5FD7018C936F5F7F4F5F
:102730006530710508F4B5CFFE01EC5EFD4F1182E6
:1027400010828F0177E4E72E72E0F72EEC0EFD1E6B
:102750002FC0F701808190E0FC01EE0FFF1FEE0F0C
:10276000FF1FE80FF91FE20FF31F3B96EE0FFF1F4D
:10277000EC0FFD1F808191810E94BD01D7018C91DA
:1027800090E0FC01EE0FFF1FEE0FFF1FE80FF91F97
:10279000D8018D919C911197E80FF91F3B96EE0F90
:1027A000FF1FEC0FFD1F1182108201968D939C93E9
:1027B000F801208131812530310558F2D701EC91A3
:1027C000F0E0EE0FFF1FEC0FFD1FE75BFF4F0190E6
:1027D000F081E02D15AA16AA17AA10AEEC91F0E030
:1027E000EE0FFF1FEC0FFD1FE75BFF4F8081918114
:1027F0000E94BD01D701EC91F0E0EE0FFF1FEC0F3E
:10280000FD1FE75BFF4F11821082FE01ED5AFF4F63
:10281000808181508083C75BDD4F1882DF91CF912B
:102820001F910F91FF90EF90DF90CF90BF90AF90EE
:1028300008952F923F924F925F926F927F928F9264
:102840009F92AF92BF92CF92DF92EF92FF920F933F
:102850001F93DF93CF93CDB7DEB760970FB6F89491
:10286000DEBF0FBECDBF7C016B01FC01EC5EFD4FF6
:102870001182108229E432E0E20EF31ED7018C911E
:1028800027EB3DEFE20EF31E882311F1DF0110C0AC
:10289000F901EE0FFF1FEE0DFF1DE75BFF4F80817B
:1028A0009181892B59F02F5F3F4F11963C932E93C6
:1028B0002D913C9111972530310550F347E452E0BA
:1028C000E40EF51ED7012C93E9EBFDEFEE0EFF1E93
:1028D00024E132E0E20EF31ED7011D921C92E9ECD6
:1028E000FFEFEE0EFF1ED7018C91E3E2FEEFEE0E3E
:1028F000FF1E813079F020EE31E0E20EF31ED701A9
:102900008D919C91E0E2FEEFEE0EFF1E0C9770F5AC
:102910000C9413262AE132E0E20EF31ED7018C91CB
:10292000E6EEFDEFEE0EFF1E882379F420EE31E097
:10293000E20EF31ED7018D919C91E0E2FEEFEE0EC8
:10294000FF1E059798F40C941326813079F420EE3D
:1029500031E0E20EF31ED7018D919C91E0E2FEEF93
:10296000EE0EFF1E0B9710F40C94132600E010E0FF
:102970006624882477249924B7016C5E7D4FEDEDA1
:102980004E2EE1E05E2E4E0C5F1C5BE1252E52E0E8
:10299000352E2E0C3F1C9701265E3D4F3E872D871E
:1029A000DB011D921C92F801EE0FFF1FEE0DFF1DC3
:1029B000E75BFF4F0190F081E02D85A996A9A7A9BB
:1029C000B0AD181619061A061B060CF08CC3D201FE
:1029D0008C91813009F0D0C1AD85BE858C91882362
:1029E00009F0E1C0D60114969C9114978081981744
:1029F00009F079C3AA24BB2416968C91833219F46A
:102A000031E0A32EB12C96012A0D3B1DD90116965B
:102A10008C91DB011D921C928130A9F0813020F055
:102A2000823009F088C070C09389D90117968C91C3
:102A30001797981709F07FC0948918968C9198176A
:102A400009F079C07CC0FB0111821082A801440FFB
:102A5000551F4E0D5F1D475B5F4F17C0FA01A081E8
:102A6000B181A20FB31FF601E20FF31FEA0DFB1DA8
:102A70001B969C918781981719F0882483940BC02A
:102A80002F5F3F4FDB012D933C93FB012081318170
:102A90002430310518F3DB011D921C92A801440F6C
:102AA000551F4E0D5F1D475B5F4F14C0FA01A0819B
:102AB000B181A20FB31FF601E20FF31FEA0DFB1D58
:102AC0001F969C9183859817A1F52F5F3F4FDB01DF
:102AD0002D933C93FB01208131812430310530F36B
:102AE00025C0992787FD9095F601E40FF51FEA0DA3
:102AF000FB1D278130E082179307D9F44F5F5F4FAA
:102B0000FB015183408307C0D801AA0FBB1FAE0D44
:102B1000BF1DA75BBF4FFB0140815181ED91FC912F
:102B20001197E40FF51F85898332D9F6882039F093
:102B300002C088248394F1E06F1609F0D4C2702E8D
:102B400021E0A216B10479F4E02FF0E0EE0FFF1FB0
:102B5000EE0DFF1DE75BFF4F0190F081E02DD601E8
:102B600015968C9182AFE72DF0E0EE0FFF1FEE0D72
:102B7000FF1DE75BFF4FA081B181DB968C91DB9756
:102B80008F5FDB968C930190F081E02DD601129639
:102B90002C91129783A994A9820F911D94AB83ABBA
:102BA00015969C90E3C0813009F09DC2D6011A961B
:102BB0009C911A978081981709F095C2AA24BB248A
:102BC0001C968C91833219F4B1E0AB2EB12C960196
:102BD0002A0D3B1DD9011C968C91DB011D921C9284
:102BE0008130A9F0813020F0823009F088C070C0B7
:102BF0009389D9011D968C911D97981709F07FC074
:102C000094891E968C91981709F079C07CC0FB01BD
:102C100011821082A801440F551F4E0D5F1D475BA6
:102C20005F4F17C0FA01A081B181A20FB31FF60157
:102C3000E20FF31FEA0DFB1D1B969C9185859817EB
:102C400019F0882483940BC02F5F3F4FDB012D9335
:102C50003C93FB01208131812430310518F3DB01E5
:102C60001D921C92A801440F551F4E0D5F1D475B1E
:102C70005F4F14C0FA01A081B181A20FB31FF6010A
:102C8000E20FF31FEA0DFB1D1F969C918189981797
:102C9000A1F52F5F3F4FDB012D933C93FB0120817A
:102CA00031812430310530F325C0992787FD909577
:102CB000F601E40FF51FEA0DFB1D258530E08217B4
:102CC0009307D9F44F5F5F4FFB015183408307C0E7
:102CD000D801AA0FBB1FAE0DBF1DA75BBF4FFB01E5
:102CE00040815181ED91FC911197E40FF51F858989
:102CF0008332D9F6882039F002C088248394F1E029
:102D00006F1609F0F0C1702E21E0A216B10479F41B
:102D1000E02FF0E0EE0FFF1FEE0DFF1DE75BFF4F12
:102D20000190F081E02DD6011B968C9182AFE72DAA
:102D3000F0E0EE0FFF1FEE0DFF1DE75BFF4FA081E0
:102D4000B181DB968C91DB978F5FDB968C93019042
:102D5000F081E02DD60118962C91189783A994A99B
:102D6000820F911D94AB83AB1B969C909A94B4E018
:102D7000B91508F0B4C1F8C68250843008F0B3C168
:102D8000D1018C91882309F0D2C0D6011B969C9169
:102D90001B978081981709F0A6C1AA24BB241D9611
:102DA0008C91833219F431E0A32EB12C96012A0DB7
:102DB0003B1DD9011D968C91DB011D921C92813027
:102DC000A9F0813020F0823009F088C070C093896A
:102DD000D9011E968C911E97981709F07FC094898F
:102DE0001F968C91981709F079C07CC0FB01118265
:102DF0001082A801440F551F4E0D5F1D475B5F4FAA
:102E000017C0FA01A081B181A20FB31FF601E20F32
:102E1000F31FEA0DFB1D1B969C918685981719F0F0
:102E2000882483940BC02F5F3F4FDB012D933C938D
:102E3000FB01208131812430310518F3DB011D9223
:102E40001C92A801440F551F4E0D5F1D475B5F4F3D
:102E500014C0FA01A081B181A20FB31FF601E20FE5
:102E6000F31FEA0DFB1D1F969C9182899817A1F50F
:102E70002F5F3F4FDB012D933C93FB01208131817C
:102E80002430310530F325C0992787FD9095F60150
:102E9000E40FF51FEA0DFB1D268530E0821793072E
:102EA000D9F44F5F5F4FFB015183408307C0D801C6
:102EB000AA0FBB1FAE0DBF1DA75BBF4FFB0140811B
:102EC0005181ED91FC911197E40FF51F85898332B3
:102ED000D9F6882039F002C088248394F1E06F1677
:102EE00009F001C1702E21E0A216B10479F4E02F9F
:102EF000F0E0EE0FFF1FEE0DFF1DE75BFF4F0190AF
:102F0000F081E02DD6011C968C9182AFE72DF0E088
:102F1000EE0FFF1FEE0DFF1DE75BFF4F0190F081ED
:102F2000E02D83AD8F5F83AFF6019484D3C08230F0
:102F300009F0D9C0D60151969C915197808198177C
:102F400009F0D1C0AA24BB2453968C91833219F482
:102F5000B1E0AB2EB12C96012A0D3B1DD901539641
:102F60008C91DB011D921C928130A9F0813020F000
:102F7000823009F088C070C09389D90154968C9131
:102F80005497981709F07FC0948955968C9198179B
:102F900009F079C07BC0FB0111821082A801440FA7
:102FA000551F4E0D5F1D475B5F4F17C0FA01A08193
:102FB000B181A20FB31FF601E20FF31FEA0DFB1D53
:102FC0001B969C918489981719F0882483940BC0D0
:102FD0002F5F3F4FDB012D933C93FB01208131811B
:102FE0002430310518F3DB011D921C92A801440F17
:102FF000551F4E0D5F1D475B5F4F14C0FA01A08146
:10300000B181A20FB31FF601E20FF31FEA0DFB1D02
:103010001F969C91808D9817A1F52F5F3F4FDB0184
:103020002D933C93FB01208131812430310530F315
:1030300025C0992787FD9095F601E40FF51FEA0D4D
:10304000FB1D248930E082179307D9F44F5F5F4F4F
:10305000FB015183408307C0D801AA0FBB1FAE0DEF
:10306000BF1DA75BBF4FFB0140815181ED91FC91DA
:103070001197E40FF51F85898332D9F6882031F046
:1030800002C088248394F1E06F1669F5702E21E068
:10309000A216B10479F4E02FF0E0EE0FFF1FEE0D61
:1030A000FF1DE75BFF4F0190F081E02DD6015296A6
:1030B0008C9182AFE72DF0E0EE0FFF1FEE0DFF1DAC
:1030C000E75BFF4F0190F081E02D83AD8F5F83AF11
:1030D000F60192889A94F4E0F91508F445C505E0E4
:1030E00010E0662463940F5F1F4F0530110508F44C
:1030F00057CC24E132E0E20EF31ED7011D921C9260
:10310000ECEEFDEFEE0EFF1E662009F015C68701FE
:10311000095B1D4FD8017C90E9E4F2E0EE0EFF1E42
:1031200081E0D7018C93EAE0FEEFEE0EFF1ED7019F
:103130008C91EDEAFFEFEE0EFF1E853028F0C701FF
:103140000E943913D8017C90F701ED5AFF4F80811E
:103150008F5F8083A72CBB2481E090E06EE370E05A
:103160000E94F700FC012501440C551C4E0C5F1C0D
:1031700029E430E0420E531ED2018D939C930097B8
:1031800009F4F8C52DED31E0E20EF31ED7018C9164
:1031900023E23EEFE20EF31E813009F084C24AE1E1
:1031A00052E0E40EF51ED7018C9126EE3DEFE20EC3
:1031B000F31E882309F022C112A6D201ED91FC91E1
:1031C000D60114968C918083F201008111810E94B6
:1031D000BE03D801D5966D937D938D939C93D8971C
:1031E000F701EC5EFD4F118210829F01A20111C018
:1031F000FA01608171816A0F7B1FAC0DBD1D8C913E
:10320000DB0119968C93F90180819181019691835C
:103210008083F901A081B181A230B10548F340E07B
:1032200050E0D60116968C91833211F441E050E0C3
:10323000D501AA0FBB1FAE0DBF1DA75BBF4F2D91C0
:103240003C911197B601640F751FFB018681F9014E
:1032500081A797012C5E3D4FF901118210820D91DB
:103260001C911197F80181A5813089F0813020F0FF
:10327000823009F089C063C0FB018781F801838B2C
:10328000ED91FC91DB0118968C91848B7DC0F90146
:10329000118210824901BD0114C0FB01008111811E
:1032A0000A0F1B1FAC0DBD1DA40FB51F17968C91E7
:1032B000D8011B968C93F4018081918101969183B2
:1032C0008083F401A081B181A430B10530F3D9012C
:1032D0001D921C9297012C5E3D4FB501660F771F22
:1032E0006E0D7F1D675B7F4F14C0FB010081118154
:1032F0000A0F1B1FAC0DBD1DA40FB51F1B968C9193
:10330000D8011F968C93F901808191810196918358
:103310008083F901A081B181A430B10530F334C0BC
:10332000ED91FC911197E80FF91F258BFB0180812E
:103330009181019691838083459710F00CC0B9016B
:10334000FB0180819181F601E80FF91FE40FF51F61
:103350002781233229F7F501EE0FFF1FEE0DFF1D28
:10336000E75BFF4F0190F081E02D24E132E0E20EB7
:10337000F31ED7018D919C912CEE3DEFE20EF31ED2
:10338000E80FF91F83E2858B4130510571F4F50197
:10339000EE0FFF1FEE0DFF1DE75BFF4F0190F08169
:1033A000E02DD60115968C9182AFD501AA0FBB1FD7
:1033B000AE0DBF1DA75BBF4FED91FC91119791E042
:1033C00093AFF60195809A94F4E0F91508F4CCC314
:1033D0002D913C911197F6018281F90183AB14AADA
:1033E000F6018381F90182ABED91FC9182A98150B4
:1033F000823010F493A7A0C413A69EC4813009F0B4
:103400009BC482A7D201ED91FC91D6011A968C91B2
:103410008083F201008111810E94BE03D801D596FC
:103420006D937D938D939C93D897A7014C5E5D4FD0
:10343000FA01118210829A01B20111C0FB010081D0
:1034400011810A0F1B1FAC0DBD1D8C91D801159663
:103450008C93F90180819181019691838083F90198
:10346000A081B181A430B10548F3DA011D921C920C
:1034700097012C5E3D4FA501440F551F4E0D5F1D5A
:10348000475B5F4F12C0FA01608171816A0F7B1F39
:10349000AC0DBD1D14968C91DB0111968C93F90136
:1034A00080819181019691838083F901A081B1810E
:1034B000A430B10540F360E070E0D6011C968C9119
:1034C000833211F461E070E0D501AA0FBB1FAE0D8D
:1034D000BF1DA75BBF4F2D913C911197A601460FD1
:1034E000571FFA018485F90181A797012C5E3D4F92
:1034F000F901118210820D911C911197F80181A59B
:10350000813089F0813020F0823009F089C063C0B9
:10351000FA018585F801838BED91FC91DA011E9605
:103520008C91848B7DC0F901118210824901AD011B
:1035300014C0FA01008111810A0F1B1FAC0DBD1DC3
:10354000A60FB71F1D968C91D8011B968C93F40182
:1035500080819181019691838083F401A081B18162
:10356000A430B10530F3D9011D921C9297012C5E55
:103570003D4FA501440F551F4E0D5F1D475B5F4F2B
:1035800014C0FA01008111810A0F1B1FAC0DBD1D73
:10359000A60FB71F51968C91D8011F968C93F901F5
:1035A00080819181019691838083F901A081B1810D
:1035B000A430B10530F334C0ED91FC911197E80FC0
:1035C000F91F258BFA018081918101969183808377
:1035D000459710F00CC0A901FA0180819181F60194
:1035E000E80FF91FE60FF71F2585233229F7F501AC
:1035F000EE0FFF1FEE0DFF1DE75BFF4F0190F08107
:10360000E02D24E132E0E20EF31ED7018D919C9172
:103610002CEE3DEFE20EF31EE80FF91F83E2858BDF
:10362000D501AA0FBB1FAE0DBF1DA75BBF4F2D91CC
:103630003C911197F6018085F90183AB14AAF6013C
:103640008185F90182ABED91FC9182A98150823094
:1036500018F481E083A701C013A66130710571F4ED
:10366000F501EE0FFF1FEE0DFF1DE75BFF4F019011
:10367000F081E02DD6011B968C9182AFAA0CBB1C69
:10368000AE0CBF1CE9E4F0E0AE0EBF1ED501ED911B
:10369000FC9181E083AFF60193849A94F4E0F915EC
:1036A00008F04AC361C28250843008F045C32BE160
:1036B00032E0E20EF31ED7018C9125EE3DEFE20ED3
:1036C000F31E882309F066C1D6011B968C91808376
:1036D000F201008111810E94BE03D801D5966D933D
:1036E0007D938D939C93D89740E050E0F6018585BB
:1036F000833211F441E050E0D501AA0FBB1FAE0D9B
:10370000BF1DA75BBF4F2D913C911197B601640F70
:10371000751FFB018585F90181A797012C5E3D4F3F
:10372000F901118210820D911C911197F80181A568
:10373000813089F0813020F0823009F089C063C087
:10374000FB018685F801838BED91FC91DB011F96CF
:103750008C91848B7DC0F901118210824901BD01D9
:1037600014C0FB01008111810A0F1B1FAC0DBD1D90
:10377000A40FB51F1E968C91D8011B968C93F40153
:1037800080819181019691838083F401A081B18130
:10379000A430B10530F3D9011D921C9297012C5E23
:1037A0003D4FB501660F771F6E0D7F1D675B7F4F25
:1037B00014C0FB01008111810A0F1B1FAC0DBD1D40
:1037C000A40FB51F52968C91D8011F968C93F901C6
:1037D00080819181019691838083F901A081B181DB
:1037E000A430B10530F334C0ED91FC911197E80F8E
:1037F000F91F258BFB018081918101969183808344
:10380000459710F00CC0B901FB0180819181F60150
:10381000E80FF91FE40FF51F2685233229F7F5017C
:10382000EE0FFF1FEE0DFF1DE75BFF4F0190F081D4
:10383000E02D24E132E0E20EF31ED7018D919C9140
:103840002CEE3DEFE20EF31EE80FF91F83E2858BAD
:103850004130510571F4F501EE0FFF1FEE0DFF1D14
:10386000E75BFF4F0190F081E02DD6011C968C9113
:1038700082AFD501AA0FBB1FAE0DBF1DA75BBF4F07
:10388000ED91FC91119781E083AFF60194849A94B5
:10389000F4E0F91508F468C197012C5E3D4FF90179
:1038A000118210828901AD0111C0FA01608171811C
:1038B0006A0F7B1FAC0DBD1D8C91DB0115968C939F
:1038C000F80180819181019691838083F801A08124
:1038D000B181A430B10548F3D9011D921C92970122
:1038E0002C5E3D4FA501440F551F4E0D5F1D475BDC
:1038F0005F4F12C0FA01608171816A0F7B1FAC0DAE
:10390000BD1D14968C91DB0111968C93F901808179
:103910009181019691838083F901A081B181A430C6
:10392000B10540F31182108297012C5E3D4FA50135
:10393000440F551FD701A40FB51FA75BBF4F11C080
:103940006D917C911197680F791F8C0D9D1DFC0165
:103950008085FB018187F9018081918101969183A6
:103960008083F901808191818230910548F3D701EC
:10397000A40FB51FA75BBF4FED91FC91119713A644
:103980002D913C911197F6018285F90182ABED9161
:10399000FC91CDC1823009F0CFC1D60151968C91F6
:1039A0008083F201008111810E94BE03D801D59667
:1039B0006D937D938D939C93D89740E050E0F601F2
:1039C0008389833211F441E050E0D501AA0FBB1F77
:1039D000AE0DBF1DA75BBF4F2D913C911197B60156
:1039E000640F751FFB018389F90181A797012C5E84
:1039F0003D4FF901118210820D911C911197F80130
:103A000081A5813089F0813020F0823009F089C0B1
:103A100063C0FB018489F801838BED91FC91DB018C
:103A200055968C91848B7DC0F901118210824901D9
:103A3000BD0114C0FB01008111810A0F1B1FAC0DD9
:103A4000BD1DA40FB51F54968C91D8011B968C9365
:103A5000F40180819181019691838083F401A0819A
:103A6000B181A430B10530F3D9011D921C929701A8
:103A70002C5E3D4FB501660F771F6E0D7F1D675B96
:103A80007F4F14C0FB01008111810A0F1B1FAC0D79
:103A9000BD1DA40FB51F58968C91D8011F968C930D
:103AA000F90180819181019691838083F901A08140
:103AB000B181A430B10530F334C0ED91FC91119780
:103AC000E80FF91F258BFB0180819181019691837D
:103AD0008083459710F00CC0B901FB018081918172
:103AE000F601E80FF91FE40FF51F2489233229F7A7
:103AF000F501EE0FFF1FEE0DFF1DE75BFF4F01907D
:103B0000F081E02D24E132E0E20EF31ED7018D9129
:103B10009C912CEE3DEFE20EF31EE80FF91F83E2BD
:103B2000858B4130510571F4F501EE0FFF1FEE0D4D
:103B3000FF1DE75BFF4F0190F081E02DD60152960B
:103B40008C9182AFD501AA0FBB1FAE0DBF1DA75B25
:103B5000BF4FED91FC91119781E083AFF601928800
:103B60009A94F4E0F91518F4C701672D2BC5970155
:103B70002C5E3D4FF901118210828901AD0111C007
:103B8000FA01608171816A0F7B1FAC0DBD1D8C91A4
:103B9000DB0115968C93F8018081918101969183C8
:103BA0008083F801A081B181A430B10548F3D90127
:103BB0001D921C9297012C5E3D4FA501440F551F8D
:103BC0004E0D5F1D475B5F4F12C0FA01608171812E
:103BD0006A0F7B1FAC0DBD1D14968C91DB011196F5
:103BE0008C93F90180819181019691838083F90101
:103BF000A081B181A430B10540F3118210829701F8
:103C00002C5E3D4FA501440F551FB701640F751F72
:103C1000675B7F4F12C0FB01008111810A0F1B1FE0
:103C2000AC0DBD1D18968C91D80119968C93F90195
:103C300080819181019691838083F901A081B18176
:103C4000A230B10540F3F701E40FF51FE75BFF4F2A
:103C5000A081B18182E09B968C9340815181D601F5
:103C60001A968C91DA019C968C930190F081E02D4C
:103C7000D6011B968C9185A7F901118210829701BC
:103C80002C5E3D4FA501440F551F4E0D5F1D475B38
:103C90005F4F12C0FA01608171816A0F7B1FAC0D0A
:103CA000BD1D1C968C91DB019E968C93F901808141
:103CB0009181019691838083F901A081B181A23025
:103CC000B10540F31182108297012C5E3D4FA50192
:103CD000440F551FD701A40FB51FA75BBF4F11C0DD
:103CE0006D917C911197680F791F8C0D9D1DFC01C2
:103CF0008685FB0180ABF9018081918101969183DA
:103D00008083F901808191818230910548F3F70128
:103D1000E40FF51FE75BFF4F20813181D6015096FC
:103D20008C91D901D2968C930190F081E02D82A9DB
:103D3000823011F481E083A7072D10E0A92CBB2469
:103D400081E090E068E670E00E94F700AC01F801C5
:103D5000EE0FFF1FEE0FFF1FE00FF11FEA0DFB1D1F
:103D60003B96EE0FFF1FEE0DFF1D51834083411563
:103D7000510521F4C7010E94CB1226C42DED31E07C
:103D8000E20EF31ED7019C9123E23EEFE20EF31EFA
:103D9000913009F0A2C1AAE1B2E0EA0EFB1ED70100
:103DA0008C9126EE3DEFE20EF31E882309F0BCC095
:103DB0004A595F4FD60115968C91DA018C93D60142
:103DC00016968C910190F081E02D833221F4E9590F
:103DD000FF4F908303C0E959FF4F1082F801EE0FA7
:103DE000FF1FEE0FFF1FE00FF11FEA0DFB1D3B96BB
:103DF000EE0FFF1FEE0DFF1D0190F081E02DE95940
:103E0000FF4F6081862E9924D701AC5EBD4F11967D
:103E10001C921E92F801EE0FFF1FEE0DFF1DE75BD7
:103E2000FF4F0190F081E02D81A5813071F081304C
:103E300018F0823039F403C082E090E01CC040E00A
:103E400050E00BC080E090E016C088E090E013C026
:103E50002F5F3F4F11963C932E932D913C911197DC
:103E6000F601E20FF31FE80DF91D87814F5F5F4FE9
:103E7000833271F7CA01695F680F262F30E0F701BE
:103E8000E052FE4F808191818217930710F43183B5
:103E90002083F801EE0FFF1FEE0FFF1FE00FF11F51
:103EA000EA0DFB1D3B96EE0FFF1FEE0DFF1D60811F
:103EB00071816C597F4F40EE51E0E40EF51ED70141
:103EC0008D919C9140E25EEFE40EF51E821B930BF8
:103ED000DB018D939C93D701AC5EBD4F11961C9274
:103EE0001E924D01AF0110C06E0F7F1FEC0DFD1D26
:103EF000E20FF31F8081FB018083D4018D919C919F
:103F0000119701968D939C93D401ED91FC91DA0168
:103F10006D917C916C597F4FDB018D919C91645622
:103F20007040E817F90700F3EAE1F2E0EE0EFF1E39
:103F3000D7019C91E6EEFDEFEE0EFF1E913009F0E9
:103F4000CCC0F801EE0FFF1FEE0FFF1FE00FF11FB7
:103F5000EA0DFB1D3B96EE0FFF1FEE0DFF1D2081AE
:103F600031812A593F4FD6011B968C91D9018C93F0
:103F7000D6011C968C910190F081E02D833221F4C2
:103F8000E959FF4F908303C0E959FF4F1082F801B0
:103F9000EE0FFF1FEE0FFF1FE00FF11FEA0DFB1DDD
:103FA0003B96EE0FFF1FEE0DFF1D0190F081E02DFF
:103FB000E959FF4F6081862E9924D701AC5EBD4F31
:103FC00011961C921E92F801EE0FFF1FEE0DFF1DC1
:103FD000E75BFF4F0190F081E02D81A5813071F00A
:103FE000813018F0823039F403C082E090E01CC0C8
:103FF00040E050E00BC080E090E016C088E090E028
:1040000013C02F5F3F4F11963C932E932D913C91FF
:104010001197F601E20FF31FE80DF91D85854F5F3B
:104020005F4F833271F7CA01635F680F262F30E05C
:10403000F701E052FE4F808191818217930710F4BF
:1040400031832083F801EE0FFF1FEE0FFF1FE00FFB
:10405000F11FEA0DFB1D3B96EE0FFF1FEE0DFF1D3E
:10406000608171816C597F4F40EE51E0E40EF51E86
:10407000D7018D919C9140E25EEFE40EF51E821B0C
:10408000930BDB018D939C93D701AC5EBD4F1196D2
:104090001C921E924D01AF0110C06E0F7F1FEC0DE0
:1040A000FD1DE20FF31F8081FB018083D4018D9100
:1040B0009C91119701968D939C93D401ED91FC9165
:1040C000DA016D917C916C597F4FDB018D919C9150
:1040D00064567040E817F90700F3EDEDF1E0EE0EDD
:1040E000FF1ED7018C91E3E2FEEFEE0EFF1E825021
:1040F000843008F0ABC12BE132E0E20EF31ED701B1
:104100008C91E5EEFDEFEE0EFF1E882309F0CEC088
:10411000F801EE0FFF1FEE0FFF1FE00FF11FEA0D7A
:10412000FB1D3B96EE0FFF1FEE0DFF1D2081318121
:104130002A593F4FD6011C968C91D9018C93D601F8
:104140001D968C910190F081E02D833229F4E9597C
:10415000FF4F81E0808303C0E959FF4F1082F801CF
:10416000EE0FFF1FEE0FFF1FE00FF11FEA0DFB1D0B
:104170003B96EE0FFF1FEE0DFF1D0190F081E02D2D
:10418000E959FF4F6081862E9924D701AC5EBD4F5F
:1041900011961C921E92F801EE0FFF1FEE0DFF1DEF
:1041A000E75BFF4F0190F081E02D81A5813071F038
:1041B000813018F0823039F403C082E090E01CC0F6
:1041C00040E050E00BC080E090E016C088E090E056
:1041D00013C02F5F3F4F11963C932E932D913C912E
:1041E0001197F601E20FF31FE80DF91D86854F5F69
:1041F0005F4F833271F7CA01625F680F262F30E08C
:10420000F701E052FE4F808191818217930710F4ED
:1042100031832083F801EE0FFF1FEE0FFF1FE00F29
:10422000F11FEA0DFB1D3B96EE0FFF1FEE0DFF1D6C
:10423000608171816C597F4F40EE51E0E40EF51EB4
:10424000D7018D919C9140E25EEFE40EF51E821B3A
:10425000930BDB018D939C93D701AC5EBD4F119600
:104260001C921E925D01AF0110C06E0F7F1FEC0DFE
:10427000FD1DE20FF31F8081FB018083D5018D912D
:104280009C91119701968D939C93D501ED91FC9192
:10429000DA016D917C916C597F4FDB018D919C917E
:1042A00064567040E817F90700F3D0C0823009F077
:1042B000CDC0F801EE0FFF1FEE0FFF1FE00FF11F43
:1042C000EA0DFB1D3B96EE0FFF1FEE0DFF1D20813B
:1042D00031812A593F4FD60152968C91D9018C9346
:1042E000D60153968C910190F081E02D833229F410
:1042F000E959FF4F81E0808303C0E959FF4F1082E5
:10430000F801EE0FFF1FEE0FFF1FE00FF11FEA0D88
:10431000FB1D3B96EE0FFF1FEE0DFF1D0190F08180
:10432000E02DE959FF4F6081862E9924D701AC5EBC
:10433000BD4F11961C921E92F801EE0FFF1FEE0D5D
:10434000FF1DE75BFF4F0190F081E02D81A58130DB
:1043500071F0813018F0823039F403C082E090E0CF
:104360001CC040E050E00BC080E090E016C088E048
:1043700090E013C02F5F3F4F11963C932E932D91E9
:104380003C911197F601E20FF31FE80DF91D8789A3
:104390004F5F5F4F833271F7CA016C5E680F262F43
:1043A00030E0F701E052FE4F808191818217930740
:1043B00010F431832083F801EE0FFF1FEE0FFF1F73
:1043C000E00FF11FEA0DFB1D3B96EE0FFF1FEE0DF8
:1043D000FF1D608171816C597F4F40EE51E0E40E0A
:1043E000F51ED7018D919C9140E25EEFE40EF51E23
:1043F000821B930BDB018D939C93D701AC5EBD4F69
:1044000011961C921E925D01AF0110C06E0F7F1FAE
:10441000EC0DFD1DE20FF31F8081FB018083D501B0
:104420008D919C91119701968D939C93D501ED915F
:10443000FC91DA016D917C916C597F4FDB018D917C
:104440009C9164567040E817F90700F3F701E85BA8
:10445000FF4F80818F5F8083853009F41082000FC9
:10446000111F0E0D1F1D075B1F4FD801ED91FC9111
:1044700093AD82AD981711F481E081AF99E4C92E14
:10448000D12CCE0CDF1C6624772487010C5E1D4FD7
:1044900083E5282E312C2E0C3F1CF701E95BFD4FE4
:1044A000FA83E9839701275B3D4F3C832B83A70168
:1044B000415A5F4F5E834D83C70183529E4F988759
:1044C0008F83D701A55EBD4FBA87A987F701E75251
:1044D000FE4FFC87EB87D8011D921C920E94BE0301
:1044E000D601ED91FC91309709F48FC325A936A927
:1044F00047A950AD12161306140615060CF085C315
:10450000621B730B840B950B69557B418040904077
:104510000CF037C381AD813009F000C3B62CE981BE
:10452000FA816082AB81BC811C92ED81FE81808129
:104530008F5F8083D8011D921C920FC0F901BA963B
:10454000EE0FFF1FEE0DFF1D80819181892B59F029
:104550002F5F3F4FF80131832083D8012D913C918B
:104560002530310558F3E22FAD81BE818C91853025
:1045700090F0AB85BC858C91813029F0813038F08A
:10458000823049F41DC0C7010E94321203C0C70126
:104590000E94C511E82F4E2E552481E090E064EB77
:1045A00070E00E94F700AC019201265D3F4F220FA0
:1045B000331F2E0D3F1DF90191838083009731F445
:1045C000C7016B2D0E9467118FEF2EC3D1018C9113
:1045D00081508C9345555F4FD601ED91FC9185A894
:1045E00096A8A7A8B0ACDA018D929D92AD92BC922C
:1045F00013974F5250408081FA018083D901ED9189
:10460000FC91E955FF4FD6018D919C91DC019A9662
:104610008C918083F901A081B181F6018081918123
:10462000FC0183A518968C93AF81B8858C9181305D
:1046300009F060C0F901A081B181A955BF4F8C91EB
:10464000A75AB040813009F048C0D8011D921C9291
:10465000A90116C0FA01A081B181A80FB91FAF57F7
:10466000BF4FF60120813181280F391FF901858163
:104670008C93D8018D919C91119701968D939C9369
:10468000F801808191818430910520F3118210829C
:10469000A201465D5F4F440F551F4E0D5F1D16C0B2
:1046A000FA01A081B181A80FB91FA358BF4FF6012D
:1046B00020813181280F391FF90181818C93D80124
:1046C0008D919C91119701968D939C93F801808117
:1046D00091818430910520F36EC0882309F06BC06E
:1046E000AB57BF4FF60180819181FC0181858C938E
:1046F000D90156C0F80111821082A90116C0FA0131
:10470000A081B181A80FB91FAF57BF4FF60120811B
:104710003181280F391FF90185818C93D8018D9142
:104720009C91119701968D939C93F80180819181C2
:104730008430910520F3118210829201265D3F4F53
:10474000B901660F771F6E0D7F1D13C0DB01ED9160
:10475000FC91E80FF91FE358FF4F480F591FDA018A
:1047600011968C918083F8018081918101969183CB
:104770008083D8018D919C91F601408151818430D4
:10478000910520F3D901AA0FBB1FAE0DBF1D2D91BE
:104790003C9111972B573F4FFA018185F901808396
:1047A000ED91FC91EA57FF4FD6018D919C91DC0170
:1047B0001A968C918083F601808191813AE2A32E32
:1047C000B12CA40CB51CAA0CBB1CAE0CBF1CD50193
:1047D000ED91FC91EA55FF4FDC01DA966C91DA9786
:1047E000D3968D919C91D49770E00E945647608338
:1047F000D501ED91FC91E855FF4FD6018D919C912B
:10480000DC0199968C918083F501A081B181A85536
:10481000BF4F8C91A85AB0408130D9F0813020F040
:10482000823009F08BC05DC0A157BF4FF601808177
:104830009181FC0183898C93D501ED91FC91E05726
:10484000FF4FD6018D919C91DC0154968C91808311
:1048500075C0F80111821082A50116C0FA01A0816D
:10486000B181A80FB91FA557BF4FF6012081318133
:10487000280F391FF90183858C93D8018D919C9164
:10488000119701968D939C93F801808191818430DA
:10489000910520F311821082A201465D5F4F440F03
:1048A000551F4E0D5F1D16C0FA01A081B181A80FE2
:1048B000B91FA957BF4FF60120813181280F391F39
:1048C000F90187858C93D8018D919C911197019660
:1048D0008D939C93F801808191818430910520F320
:1048E0002DC0D8011D921C92A501F80180819181F3
:1048F000FA01A081B181A80FB91FAF56BF4FF601D1
:1049000020813181280F391FF90185898C93D801C5
:104910008D919C91119701968D939C93D601ED9169
:10492000FC91E80FF91F25892332F9F6D501ED91A5
:10493000FC91E80FF91FEF56FF4F2083D601ED9150
:10494000FC9182AD682F70E061507040F301EE0F72
:10495000FF1FEE0FFF1FE60DF71DE60FF71F3B963B
:10496000EE0FFF1FEE0DFF1DF88BEF8788249924B3
:10497000AA24BB24A201465D5F4F440F551F4E0D74
:104980005F1D32C0D8011D921C9216C0FA01208111
:104990003181280F391F2A0D3B1DA80FB91F8C919B
:1049A000D9011C968C930894811C911CF80180817C
:1049B0009181019691838083D8018D919C91EF859F
:1049C000F889A081B181AC59BF4F2D913C911197CD
:1049D000A456B04082179307C8F2A20EB31E6150CE
:1049E00070403297F88BEF87FFEF6F3F7F0751F6EC
:1049F0009201265D3F4F220F331F2E0D3F1DF901FF
:104A0000A081B181A059BF4F11969C928E92A05760
:104A1000B040E985FA858081823009F044C0AC5805
:104A2000BF4FF60180819181FC0184A58C93D9014F
:104A3000ED91FC91EB58FF4FD6018D919C91DC01DB
:104A40009D968C918083D901ED91FC91EA58FF4F9E
:104A5000D6018D919C91DC019E968C918083D90129
:104A6000ED91FC91E958FF4FD6018D919C91DC01AD
:104A70009F968C918083D901ED91FC91E858FF4F6E
:104A8000D6018D919C91DC01D0968C918083D901C7
:104A9000ED91FC91E758FF4FD6018D919C91DC017F
:104AA000D1968C918083F801118210825301AA0C57
:104AB000BB1CAA0CBB1CA60CB71C1CC0EA0DFB1D22
:104AC0003B96EE0FFF1FEE0DFF1D808191810E942E
:104AD000BD01D8018D919C911197F501E80FF91F47
:104AE0003B96EE0FFF1FEE0DFF1D11821082019607
:104AF0008D939C93D801ED91FC91E530F105F0F296
:104B0000D601ED91FC9115AA16AA17AA10AECF01F5
:104B10000E94BD01F6011182108277C092AD83AD73
:104B2000981709F072C0D8011D921C925301AA0C6B
:104B3000BB1CAA0CBB1CA60CB71C1CC0EA0DFB1DA1
:104B40003B96EE0FFF1FEE0DFF1D808191810E94AD
:104B5000BD01F80180819181F501E80FF91F3B96B5
:104B6000EE0FFF1FEE0DFF1D118210820196D8017E
:104B70008D939C93D801ED91FC91E530F105F0F215
:104B80002DC0F801118210825301AA0CBB1CAA0C83
:104B9000BB1CA60CB71C1CC0EA0DFB1D3B96EE0F00
:104BA000FF1FEE0DFF1D808191810E94BD01D80184
:104BB0008D919C911197F501E80FF91F3B96EE0F2F
:104BC000FF1FEE0DFF1D1182108201968D939C93A5
:104BD000D801ED91FC91E530F105F0F2D601ED91AF
:104BE000FC9115AA16AA17AA10AECF010E94BD010A
:104BF000F60111821082D1018C9181508C93E98150
:104C0000FA816082AB81BC811C920894611C711C8A
:104C1000E2E0F0E0CE0EDF1EF5E06F16710409F061
:104C20005ACC80E001C081E060960FB6F894DEBFF8
:104C30000FBECDBFCF91DF911F910F91FF90EF90ED
:104C4000DF90CF90BF90AF909F908F907F906F90AC
:104C50005F904F903F902F900895AF92BF92CF9268
:104C6000DF92EF92FF920F931F93CF93DF93EC01AC
:104C70006B015A01890188E790E061E070E00E94D1
:104C8000F7007C01B8016D5F7F4FFE01EC5EFD4FC8
:104C90007183608340E050E0DF010BC0F601E20F5A
:104CA000F31F8081480F511D2F5F3F4F11963C939A
:104CB0002E932D913C9111972A153B0578F34F3F88
:104CC000510519F04F3F09F06AC0DE01A052BE4FF6
:104CD00011961C921E92FE01EC5EFD4F0C5F1F4F61
:104CE00011830083045010409F010894A108B1086B
:104CF000AD0116C0FD013497E01BF10BEE0DFF1D59
:104D0000AC0DBD1D8C918083FA018081918101964B
:104D100091838083F90180819181019691838083C1
:104D2000F901A081B181AA15BB0520F36C0D7D1D91
:104D3000FB018081813879F0823818F48038D9F409
:104D400005C0803971F08139B1F40FC0C65EDD4F06
:104D500081E0888303C0C65EDD4F1882CA51D2400D
:104D60000AC0C55EDD4F188204C0C55EDD4F82E01B
:104D70008883CB51D240CE01B7010E941914182F5D
:104D8000C7010E94BD01812FDF91CF911F910F912B
:104D9000FF90EF90DF90CF90BF90AF900895C70144
:104DA0000E94BD0111E0EFCF2F923F924F925F9290
:104DB0006F927F928F929F92AF92BF92CF92DF922B
:104DC000EF92FF920F931F93DF93CF93CDB7DEB790
:104DD00062970FB6F894DEBF0FBECDBF8C013B01CA
:104DE0000E94BE03D82E04521E4F82E0D8018C933D
:104DF0000C5D1140F801E85BFD4F8081882321F4B0
:104E0000EE24FF24332409C08EE7D3018C93108253
:104E100051E0E52EF12C332433944D2D592FCB0145
:104E2000DA014C015D01EBE0F0E0FA8BE98BDD2467
:104E30005524C801885B9D4F988B8F8746E0242EB0
:104E400044244394B1C085EC96E00E94FF08882377
:104E500011F4CC2495C085EC96E00E94FA08F30189
:104E6000EE0DFF1D80830894E11CF11C0E94BE031F
:104E7000AC01CB01DA014C015D010894E108F108B5
:104E8000F301EE0DFF1D0894E11CF11C80818E37AB
:104E900061F48CE291E08E199F098E36910520F421
:104EA000AF85B8894C9201C03394B1E0EB16F104A0
:104EB00049F4EE24FF2480818E3761F431E0E32E43
:104EC000F12C08C0ECE2EE16E1E0FE0618F0CC246E
:104ED000C39401C0CC24529C900111242C5F3F4FFD
:104EE000C9018D0D911DE816F90699F4F1E0DF1660
:104EF00099F0F301EE0DFF1D319780818A588230C1
:104F000080F089899A8903969A8B898BDD24D394C2
:104F100003C091E0D91629F4A989BA891196BA8BF0
:104F2000A98BF301EE0DFF1D3197E081ED3741F4C0
:104F3000DD20F9F4E989FA893196FA8BE98B19C0F9
:104F4000EA3851F4E216F306A1F489899A890696A3
:104F50009A8B898B53940DC0EE3759F491E0D91692
:104F600041F4A989BA891197BA8BA98B29EFD22E5E
:104F7000DA0EE989FA89EE16FF0611F4CC24C394FF
:104F80000E94BE030E94BE03681979098A099B0921
:104F9000615D77408040904028F085EC96E00E946B
:104FA000F50808C0CC2031F4AF85B8898C918823EE
:104FB00009F449CFF30180818E3709F0339491E0F1
:104FC000C92ED12CAA24BB2484E1482E82E0582E7D
:104FD000400E511EC8018C5B9D4F9A838983D80176
:104FE000AB5BBD4FBC83AB83F801EA5BFD4FFE8337
:104FF000ED83C8018D5B9D4F98878F83D801AE5B91
:10500000BD4FBA87A987F801E452FE4FFC87EB87B2
:1050100088248394C80185529E4F9E878D879BC0AC
:105020000894C11CD11C80818E3721F03196CE149A
:10503000DF04B0F3D601AA19BB09BA8BA98BF20120
:10504000118210829924A3014A0D5B1D0CC0FA0144
:10505000E20FF31F80818D3709F493942F5F3F4F48
:10506000D2012D933C93F2012081318189899A8963
:105070002817390760F3992049F09601281B390B4E
:10508000C801B30149895A890E94EC0D9601A9898A
:10509000BA892A1B3B0BF301E20FF31F83818B3884
:1050A000C1F18C3820F48A3809F050C006C080392C
:1050B00091F0813909F04AC01BC0E989FA89EA0DEB
:1050C000FB1DE919F109FA8BE98BC801B301AF01A6
:1050D0000E94470E3BC089899A898A0D9B1D8919B8
:1050E00091099A8B898BC801B30149895A890BC0F0
:1050F000E989FA89EA0DFB1DE919F109FA8BE98BB7
:10510000C801B301AF010E942D26AD85BE858C93E9
:105110001DC08581A981BA818C938681AB81BC81B8
:105120008C938781AD81BE818C938185AF81B88559
:105130008C938085E985FA858083882321F4AB856B
:10514000BC851C9203C0EB85FC8580823A94560195
:105150000894C11CD11C332021F0F301EC0DFD1D7E
:1051600062CF04521E4FD8018C9162960FB6F8940C
:10517000DEBF0FBECDBFCF91DF911F910F91FF908A
:10518000EF90DF90CF90BF90AF909F908F907F90E7
:105190006F905F904F903F902F9008952F923F9285
:1051A0004F925F926F927F928F929F92AF92BF9237
:1051B000CF92DF92EF92FF920F931F93DF93CF93E3
:1051C000CDB7DEB72A970FB6F894DEBF0FBECDBFBE
:1051D0006C014B010E94BE03F82E2CED31E0C20E93
:1051E000D31E82E0D6018C93E4E2FEEFCE0EDF1EEA
:1051F000F601E85BFD4F8081882321F400E010E098
:10520000332408C08EE7D4018C93108201E010E0B3
:10521000332433944F2D592FCB01DA012C013D015A
:10522000E7E0F0E0FA87E987FF24BB249601285BDA
:105230003D4F38872F83F6E02F2EAA24A394ACC0CD
:1052400085EC96E00E94FF08882311F4EE2490C0BC
:1052500085EC96E00E94FA08F401E00FF11F8083CC
:105260000F5F1F4F0E94BE03AC01CB01DA012C017E
:105270003D0101501040F401E00FF11F0F5F1F4F7F
:1052800080818E3761F48CE291E0801B910B8E3629
:10529000910520F4AF81B885AC9201C03394013000
:1052A000110541F400E010E080818E3751F401E0F7
:1052B00010E007C0B1E00C321B0718F0EE24E394B5
:1052C00001C0EE24B29C900111242C5F3F4FC90114
:1052D0008F0D911D0817190799F4E1E0FE1699F05A
:1052E000F401E00FF11F319780818958823080F0FE
:1052F00089859A8503969A878987FF24F39403C04A
:1053000091E0F91629F4A985BA851196BA87A9877B
:10531000F401E00FF11F3197E081ED3741F4FF20F8
:1053200001F5E985FA853196FA87E9871AC0EA38E6
:1053300059F402171307A9F429853A852A5F3F4FCC
:105340003A872987B3940DC0EE3759F431E0F3164C
:1053500041F489859A8501979A878987E9EFFE2E1E
:10536000F80EA985BA850A171B0711F4EE24E394F9
:105370000E94BE030E94BE0364197509860997093D
:10538000615D77408040904028F085EC96E00E9477
:10539000F50808C0EE2031F4EF81F885808188237C
:1053A00009F44ECFD4018C918E3709F0339471E01B
:1053B000E72EF12CAA24BB2464E1462E62E0562E8F
:1053C0004C0C5D1CF601E552FE4FFA83E983960111
:1053D0002E5B3D4F3C832B83C60184529E4F9E83A0
:1053E0008D836624639488C00894E11CF11C80813D
:1053F0008E3721F03196E016F106B0F3D701AA19E5
:10540000BB09BA87A987F201118210827724A4010F
:105410004A0D5B1D0CC0FA01E20FF31F80818D372E
:1054200009F473942F5F3F4FD2012D933C93F20107
:105430002081318189859A852817390760F3772083
:1054400049F09701281B390BC601B40149855A85DB
:105450000E94EC0D9701A985BA852A1B3B0BF4012C
:10546000E20FF31F8381813821F1823818F48038EC
:10547000F1F512C0893871F18A38C9F5E985FA85E4
:10548000EA0DFB1DE719F109FA87E987C601B401A6
:10549000AF010E94470E2BC089859A858A0D9B1DFE
:1054A000871991099A878987C601B40149855A8568
:1054B0000BC0E985FA85EA0DFB1DE719F109FA87AA
:1054C000E987C601B401AF010E942D26A981BA81E6
:1054D0008C930DC08581EB81FC818083882321F42E
:1054E000AD81BE811C9203C0ED81FE8160823A9441
:1054F00057010894E11CF11C332021F0F401EE0D5A
:10550000FF1D75CF2CED31E0C20ED31ED6018C915C
:105510002A960FB6F894DEBF0FBECDBFCF91DF91B4
:105520001F910F91FF90EF90DF90CF90BF90AF90C1
:105530009F908F907F906F905F904F903F902F90B3
:1055400008952F923F924F925F926F927F928F9227
:105550009F92AF92BF92CF92DF92EF92FF920F9302
:105560001F93DF93CF93CDB7DEB72C970FB6F89488
:10557000DEBF0FBECDBF6C0178876F838CE291E0F8
:1055800061E070E00E94F7005C01009739F485EC5F
:1055900096E00E94F508FF24FA94C7C10E94BE035A
:1055A0000E94BE03F601E85BFD4F8081882321F451
:1055B000442455241A8209C010828EE7F5018083A5
:1055C000B1E04B2E512CF1E0FA83EF81F885808118
:1055D0008F3F29F4C601B5010E94CE2806C08E3F38
:1055E00079F4C601B5010E94D426860104521E4FEB
:1055F000F8018083C5010E94BD01F801F08095C1CA
:105600008E3E41F4A5E0EA2EF12C012D112DFDE690
:105610003F2E07C0E2E3EE2EF12C012D112D7EE18D
:10562000372EEF81F8858581853489F4868184342D
:1056300009F045C02DED31E0C20ED31EF601808188
:1056400023E23EEFC20ED31E8130C9F58EC18434F1
:1056500061F4EF81F88586818E3489F568EEE62E57
:1056600063E0F62E012D112D2AC08E3441F5EF8115
:10567000F8858681843419F52DED31E0C20ED31EF4
:10568000F601808123E23EEFC20ED31E833039F44F
:1056900050E4E52E5CE9F52E012D112D10C084504B
:1056A000823038F440EBE42E46E3F42E012D112D28
:1056B00006C030E2E32E3EE4F32E012D112D0E94B0
:1056C000BE036B837C838D839E830E94BE03AC01EB
:1056D000CB01DA013C014D01A601485B5D4F5C87BF
:1056E0004B87232C33242CC085EC96E00E94FA08CB
:1056F000F501E40DF51D80830894411C511CF50152
:10570000E40DF51D319780818E3779F48CE291E0BC
:10571000841995098215930528F421E0EB85FC8511
:10572000208303C03A813F5F3A830E94BE03AC01ED
:10573000CB01DA013C014D010E94BE030E94BE0371
:105740000E94BE0366197709880999096E157F05BD
:105750008007910708F003C10E94BE032B813C81A2
:105760004D815E81621B730B840B950B60547C49E9
:105770008040904008F0F3C04CE2441641E05406EB
:1057800008F0EDC0EB85FC858081882309F0E7C037
:1057900085EC96E00E94FF08882371F2A5CFFA817C
:1057A000FF5FFA8321E0822E912C00E010E092E06E
:1057B000F92E198284E1282E82E0382E2C0C3D1C13
:1057C000960126523E4F3A872987BBED6B2EB1E0FA
:1057D0007B2E6C0C7D1C9CC00894811C911C8081CC
:1057E0008E3721F0319684149504B0F3A401401B48
:1057F000510B5C874B87F10111821082EE24A501C9
:10580000400F511F0CC0FA01E20FF31F80818D374A
:1058100009F4E3942F5F3F4FF10131832083F101BD
:10582000208131818B859C852817390760F3EE2014
:1058300049F09401281B390BC601B5014B855C85E5
:105840000E94EC0DD401EB85FC85AE1BBF0BF5016E
:10585000EA0FFB1F8381883881F0893830F4803863
:1058600079F1813809F048C036C08039A1F1813919
:1058700091F18A3809F040C013C02B853C85200F78
:10588000311F2E1931093C872B87C601B5014F8185
:1058900058858D010E94B710F82EE985FA852BC036
:1058A0002B853C85200F311F2E1931093C872B8712
:1058B000C601B501A9019D010E94470EF82E1CC02A
:1058C0004B855C85400F511F4E1951095C874B87F2
:1058D000C601B5010BC02B853C85200F311F2E1949
:1058E00031093C872B87C601B501A9019D010E94A2
:1058F0002D26F82EF301F082FF2019F4F981FF5FC5
:10590000F9832A8121502A8384010894811C911CE7
:105910003A81332321F0F501E80DF91D60CFC5016F
:105920000E94BD0149814111FF248F2D2C960FB695
:10593000F894DEBF0FBECDBFCF91DF911F910F91C5
:10594000FF90EF90DF90CF90BF90AF909F908F909F
:105950007F906F905F904F903F902F900895F5014A
:1059600080818E3709F01BCF1DCFA8EBEA2EABE06C
:10597000FA2E012D112DA3CECF92DF92EF92FF923E
:105980000F931F93CF93DF93EC01FC01EC5EFD4F6F
:105990001182108290E0DF0106C09F5F2F5F3F4FB2
:1059A00011963C932E932D913C911197FB01E20FA0
:1059B000F31F8081882389F7092F069512E2C12EF3
:1059C00012E0D12ECC0EDD1E760110E00DC0F701E5
:1059D00041917F0150E060E070E085EC96E020E0CE
:1059E00030E00E94C9081F5F101788F3CE01B6018E
:1059F0000E94A12ADF91CF911F910F91FF90EF900C
:105A0000DF90CF900895AF92BF92CF92DF92EF9246
:105A1000FF920F931F93CF93DF938C015A01DC0108
:105A2000AC5EBD4F11961C921E92ED0109C0F801AB
:105A3000E80FF91FEE5DFD4F108201969983888370
:105A4000888199818E31910590F31D921C9290E08E
:105A5000D801AC5EBD4F06C09F5F2F5F3F4F1196D0
:105A60003C932E932D913C911197FB01E20FF31F74
:105A70008081882389F7D92ED6947B01C02EC80156
:105A8000EC0110C08CED9CE0F701608141810E9427
:105A9000CA44CE5DDD4F888322E030E0E20EF31E83
:105AA000C152D240FE01EC19ED1560F3FBE0FD158B
:105AB000F8F4F801EC5EFD4F11821082EF014D2DDC
:105AC00050E010C0F801E20FF31FE40FF51FE75E8E
:105AD000FD4FD501A20FB31F8C9180832F5F3F4FE5
