:100000000C94CA000C94484C0C94794C0C94AA4C57
:100010000C94DB4C0C940C4D0C943D4D0C946E4D9B
:100020000C949F4D0C94F5000C94F5000C94F50085
:100030000C94CF080C94F5000C94F5000C948D07EB
:100040000C94F5000C94F5000C94F5000C94F5005C
:100050000C94F5000C94F5000C94F5000C946807D2
:100060000C94F5000C94434E0C94F5000C94F500A0
:100070000C94F5000C94F5000C94F5000C94F5002C
:100080000C94F5000C94F5000C94F5000C94F5001C
:100090000C94844E0C94F5000C94F5000C94E84AF2
:1000A0000C94F5000C94F5000C94F5000C94F500FC
:1000B0000C94F5000C94F5000C94F5000C94F500EC
:1000C0000C94F5000C94F5000C94F5000021242705
:1000D0002A2D3033002225282B2E313400202326D0
:1000E000292C2F3205050505030303030101010433
:1000F00004030606060606060606010405010501B8
:1001000003020202020202010202050504040304C2
:1001100004010304070707010208101020408004AF
:1001200008102040020204081020408001028020B4
:100130004004200101020408102001408040800199
:1001400002080408800410040201000008090000ED
:10015000000000000000000000000000000000009F
:10016000000000000000000000000000000000008F
:100170000000000000000000000000000000E50991
:100180001E0DEB12CE13CF138314CB18FA37285061
:1001900066506B5011241FBECFEFD1E2DEBFCDBF42
:1001A0001AE0A0E0B2E0E4E7F2EA00E00BBF02C030
:1001B00007900D92A037B107D9F71BBE19E1A0E750
:1001C000BAE001C01D92A338B107E1F711E0C4E91C
:1001D000D1E004C02297FE010E94FD50CE37D10726
:1001E000C9F70E9461070C9438510C9400000F93DA
:1001F0001F93CF93DF93689F8001699F100D789FB5
:10020000100D1124C8010E941301EC01009729F080
:1002100060E070E0A8010E941E02CE01DF91CF9144
:100220001F910F910895CF93DF93BC018230910508
:1002300010F462E070E0A0918119B0918219ED0193
:10024000E0E0F0E040E050E021C08881998186172D
:10025000970769F48A819B81309719F09383828391
:1002600004C09093821980938119FE0134C06817ED
:10027000790738F44115510519F08417950708F4EA
:10028000AC01FE018A819B819C01E9012097E9F67E
:1002900041155105A9F1CA01861B970B049708F473
:1002A000BA01E0E0F0E02AC08D919C91119784178B
:1002B0009507F9F46417750781F412968D919C9156
:1002C0001397309719F09383828304C09093821917
:1002D00080938119FD0132964CC0CA01861B970B91
:1002E000FD01E80FF91F6193719302978D939C9321
:1002F00040C0FD01828193819C01D9011097A1F634
:1003000080917F1990918019892B41F48091590A2D
:1003100090915A0A9093801980937F1940915B0ABB
:1003200050915C0A4115510541F44DB75EB780917B
:10033000570A9091580A481B590B20917F19309108
:100340008019CA01821B930B8617970780F0AB01B7
:100350004E5F5F4F8417950750F0420F531F509325
:10036000801940937F19F9016193719302C0E0E015
:10037000F0E0CF01DF91CF910895CF93DF93009705
:1003800009F450C0EC0122971B821A82A0918119B6
:10039000B0918219109709F140E050E0AC17BD0709
:1003A00008F1BB83AA83FE0121913191E20FF31F73
:1003B000AE17BF0779F48D919C911197280F391FC3
:1003C0002E5F3F4F3983288312968D919C9113970E
:1003D0009B838A834115510571F4D0938219C09390
:1003E000811920C012968D919C911397AD010097B1
:1003F00011F0DC01D3CFFA01D383C2832191319173
:10040000E20FF31FCE17DF0769F488819981280F67
:10041000391F2E5F3F4FFA01318320838A819B81F0
:1004200093838283DF91CF910895FB01DC0102C0A9
:1004300001900D9241505040D8F70895DC0101C061
:100440006D9341505040E0F70895FC01819186176B
:1004500021F08823D9F7992708953197CF0108957E
:10046000FB01DC018D91019080190110D9F3990BEA
:100470000895FB01DC0101900D920020E1F7089541
:10048000FB01DC014150504030F08D91019080190A
:1004900019F40020B9F7881B990B0895FB01DC01C2
:1004A0004150504048F001900D920020C9F701C022
:1004B0001D9241505040E0F70895FC0181E090E02A
:1004C0000190061609F4CF010020D1F70197089595
:1004D000AEE0B0E0EEE6F2E00C940F510D891E891B
:1004E00086E08C831A8309838FEF9FE79E838D8339
:1004F0009E01275E3F4FCE0101966F89788DA9013D
:100500000E948C022F813885020F131FF801108280
:100510002E96E4E00C942B51ABE0B0E0E2E9F2E07F
:100520000C9401513C012B015A01FC0117821682E7
:10053000838181FD03C06FEF7FEFC6C19AE0892EF2
:100540001E010894211C311CF3012381F20123FDBB
:10055000859123FF81912F01882309F4B2C185324F
:1005600039F423FD859123FF81912F01853229F4F0
:1005700090E0B3010E947F04E7CF982FFF24EE2480
:100580009924FFE1FF15D0F09B3269F09C3228F4EA
:10059000903259F0933291F40EC09D3249F090336D
:1005A00069F441E024C052E0F52A84E0F82A28C02A
:1005B00098E0F92A25C0E0E1FE2A22C0F7FC29C014
:1005C000892F80538A3070F4F6FE05C0989C902CD9
:1005D0001124980E15C0E89CE02C1124E80EF0E2DE
:1005E000FF2A0EC09E3229F4F6FC6BC140E4F42AC7
:1005F00007C09C3619F450E8F52A02C0983649F431
:10060000F20123FD959123FF91912F01992309F088
:10061000B8CF892F8554833018F08052833038F456
:1006200044E050E0A40EB51E5FE359830FC093363B
:1006300031F0933779F0933509F056C020C0F501B9
:100640008081898342E050E0A40EB51E610101E083
:1006500010E012C0F501C080D180F6FC03C06FEF3E
:100660007FEF02C0692D70E042E050E0A40EB51E9D
:10067000C6010E9474048C015FE7F52214C0F501E5
:10068000C080D180F6FC03C06FEF7FEF02C0692D00
:1006900070E042E050E0A40EB51EC6010E9469045D
:1006A0008C0150E8F52AF3FE07C01AC080E290E002
:1006B000B3010E947F04EA948E2D90E00817190779
:1006C000A8F30EC0F601F7FC8591F7FE81916F014A
:1006D00090E0B3010E947F04E110EA9401501040C1
:1006E0000115110579F7EAC0943611F0993669F5CC
:1006F000F7FE08C0F501208131814281538184E0F9
:1007000090E00AC0F501808191819C01442737FD6A
:100710004095542F82E090E0A80EB91E9FE6F92282
:1007200057FF09C050954095309521953F4F4F4F49
:100730005F4FE0E8FE2ACA01B901A1012AE030E0DA
:100740000E94AB04D82ED21840C0953729F41F2D33
:100750001F7E2AE030E01DC01F2D197F9F3661F0FB
:10076000903720F4983509F0ACC00FC0903739F0BD
:10077000983709F0A6C004C028E030E00AC0106134
:1007800014FD146020E130E004C014FD166020E187
:1007900032E017FF08C0F501608171818281938189
:1007A00044E050E008C0F50180819181BC0180E007
:1007B00090E042E050E0A40EB51EA1010E94AB04FF
:1007C000D82ED2188FE7F82EF122F6FE0BC05EEF7E
:1007D000F522D91438F4F4FE07C0F2FC05C08FEE00
:1007E000F82202C01D2D01C0192DF4FE0DC0FE011E
:1007F000ED0DF11D8081803319F499EEF92208C0C6
:100800001F5FF2FE05C003C08F2D867809F01F5FC1
:100810000F2DF3FC14C0F0FE0FC01E1510F09D2C20
:100820000BC09D2C9E0C911A1E2D06C080E290E0FC
:10083000B3010E947F041F5F1E15C0F304C01E1584
:1008400010F4E11A01C0EE2404FF0FC080E390E031
:10085000B3010E947F0402FF1DC001FD03C088E7B1
:1008600090E00EC088E590E00BC0802F867891F074
:1008700001FF02C08BE201C080E2F7FC8DE290E054
:10088000B3010E947F0406C080E390E0B3010E94A0
:100890007F049A94D914C0F3DA94F101ED0DF11D9F
:1008A000808190E0B3010E947F04DD20A9F706C09B
:1008B00080E290E0B3010E947F04EA94EE20C1F749
:1008C00043CEF30166817781CB012B96E2E10C9454
:1008D0001D51FC010590615070400110D8F78095C2
:1008E00090958E0F9F1F0895FC01615070400190FC
:1008F0000110D8F7809590958E0F9F1F08950F9344
:100900001F93CF93DF938C01EB018B8181FF1BC081
:1009100082FF0DC02E813F818C819D812817390770
:1009200064F4E881F9810193F983E88306C0E885DE
:10093000F985802F0995892B31F48E819F8101964D
:100940009F838E8302C00FEF1FEFC801DF91CF910D
:100950001F910F910895FA01AA27283051F12031F3
:1009600081F1E8946F936E7F6E5F7F4F8F4F9F4F43
:10097000AF4FB1E03ED0B4E03CD0670F781F891F85
:100980009A1FA11D680F791F8A1F911DA11D6A0F53
:10099000711D811D911DA11D20D009F468943F9106
:1009A0002AE0269F11243019305D3193DEF6CF0105
:1009B0000895462F4770405D4193B3E00FD0C9F7CB
:1009C000F6CF462F4F70405D4A3318F0495D31FD38
:1009D0004052419302D0A9F7EACFB4E0A69597958B
:1009E000879577956795BA95C9F700976105710561
:1009F00008959B01AC010A2E0694579547953795AB
:100A00002795BA95C9F7620F731F841F951FA01D04
:100A10000895CF92DF92EF92FF920F931F93CF939F
:100A2000DF9388E19EE00E945014882309F452C1AC
:100A30008AE19EE00E9421348091F50F882309F419
:100A40002FC13CC188E19EE060E072E00E94321458
:100A500000E71AE0C0E0D0E0E091790EF0E0EE0FA0
:100A6000FF1FE459F14F0190F081E02DEC0FFD1FC5
:100A7000EF57FF4F408150E060E070E088E19EE07A
:100A800020E130E00E940914E091790EF0E0EE0FD1
:100A9000FF1FE459F14F0190F081E02DEC0FFD1F95
:100AA000EF57FF4F8081D8018C9311961C922196AD
:100AB0000E5F1F4FC430D10579F608E71AE0C0E099
:100AC000D0E0E091790EF0E0EE0FFF1FE459F14F16
:100AD0000190F081E02DEC0FFD1FE358FF4F4081A6
:100AE00050E060E070E088E19EE020E130E00E94AC
:100AF0000914E091790EF0E0EE0FFF1FE459F14F79
:100B00000190F081E02DEC0FFD1FE358FF4F808135
:100B1000F8018083118221960E5F1F4FC430D105EA
:100B200081F688E19EE00E94D213E091790EF0E018
:100B3000EE0FFF1FE459F14F0190F081E02D848505
:100B40009091800A892B8093800A85859091810AF3
:100B5000892B8093810A86859091820A892B8093C4
:100B6000820A88E99AE00E94CB0C9093610A8093F4
:100B7000600A2DB73EB72C5130400FB6F8943EBFF7
:100B80000FBE2DBFEDB7FEB73196ADB7BEB712960B
:100B9000FC92EE921197D382C2822091700A30911A
:100BA000710A358324832091720A3091730A378346
:100BB00026832091740A3091750A3187208720910D
:100BC000760A3091770A338722872091780A30910C
:100BD000790A3587248720917A0A30917B0A3787F2
:100BE000268720917C0A30917D0A318B208B2091C1
:100BF0007E0A30917F0A338B228B2091800A332723
:100C000027FD3095358B248B2091810A332727FDD2
:100C10003095378B268B2091820A332727FD30951C
:100C2000318F208F938F828F0E946802EDB7FEB7BD
:100C30007C960FB6F894FEBF0FBEEDBF85E39CE037
:100C4000B7010E94FE128EEB9AE062E372E0A70108
:100C50000E94BC10882329F085E39CE06DE372E0DC
:100C600004C085E39CE06AE472E00E94FE12E09119
:100C7000790EF0E0EE0FFF1FE459F14F8081918172
:100C80000E94BD018091790EE82FF0E0EE0FFF1F6A
:100C9000E459F14F1182108281508093790E08C07F
:100CA00093E8E92E9AE0F92E85E1C82E82E0D82E4D
:100CB0008091790E882309F0C5CE0CC088E19EE0B2
:100CC00060E572E00E94381488E19EE063E672E01D
:100CD0000E943814DF91CF911F910F91FF90EF90F8
:100CE000DF90CF90089585E39CE00E940C1388E983
:100CF0009AE00E941B0D88E99AE064E672E00E9487
:100D00003B0B8EEB9AE00E94DC128EEB9AE00E9485
:100D1000030E882309F44BC08EEB9AE069E772E07A
:100D20000E944C11882329F085E39CE06DE772E076
:100D300004C085E39CE06CE872E00E94FE128EEB3A
:100D40009AE069E772E00E94AD0E882329F085E3FE
:100D50009CE062EA72E004C085E39CE061EB72E033
:100D60000E94FE128EEB9AE069E772E00E94D610B4
:100D7000882329F085E39CE067EC72E004C085E3FA
:100D80009CE066ED72E00E94FE128EEB9AE062E358
:100D900072E00E94140E882329F085E39CE06FEE38
:100DA00072E009C085E39CE06CEF72E004C085E36B
:100DB0009CE060E173E00E94FE128AE19EE061E047
:100DC00041E021E00E9484148AE19EE00E94B33752
:100DD0008AE19EE062E144E30E9435368AE19EE0CA
:100DE00060915D0A0E945C378091F40F882391F432
:100DF00088E19EE063E273E00E94321440915D0A54
:100E000050E060E070E088E19EE020E130E00E9488
:100E1000271406C088E19EE064E373E00E94381462
:100E20008AE19EE06EE57AE00E9435358091F40F0C
:100E30008823C9F488E19EE060E573E00E943214E3
:100E400050915E0A40E080915F0A90E0482B592B58
:100E5000662757FD6095762F88E19EE020E130E01F
:100E60000E94271406C088E19EE06FE573E00E94AF
:100E700038148AE19EE060E00E9438378091F40FD8
:100E8000882329F488E19EE06AE773E004C088E1E2
:100E90009EE06EE873E00E9438148AE19EE00E94B2
:100EA000B9368091F40F882329F488E19EE06DEA39
:100EB00073E004C088E19EE061EC73E00E943814A6
:100EC00008950E9412080E9473060E940905FDCF32
:100ED0001F920F920FB60F9211248F939F93AF938F
:100EE000BF938091F7169091F816A091F916B091E2
:100EF000FA160196A11DB11D8093F7169093F8166E
:100F0000A093F916B093FA16BF91AF919F918F916C
:100F10000F900FBE0F901F9018951F920F920FB653
:100F20000F9211248F939F93AF93BF938091FB16E1
:100F30009091FC16A091FD16B091FE160196A11D90
:100F4000B11D8093FB169093FC16A093FD16B093F1
:100F5000FE16BF91AF919F918F910F900FBE0F9092
:100F60001F9018956091F7167091F8168091F916F8
:100F70009091FA1627E0660F771F881F991F2A9510
:100F8000D1F72EE330E040E050E00E94BE50CA01AD
:100F9000B9010895AF92BF92CF92DF92EF92FF9284
:100FA0000F931F935B016C016091F7167091F81617
:100FB0008091F9169091FA1647E0660F771F881F07
:100FC000991F4A95D1F72EE330E040E050E00E94AF
:100FD000BE5079018A016091F7167091F8168091E0
:100FE000F9169091FA1637E0660F771F881F991F40
:100FF0003A95D1F72EE330E040E050E00E94BE5039
:101000002E193F09400B510B2A153B054C055D0578
:1010100010F31F910F91FF90EF90DF90CF90BF9052
:10102000AF900895789484B7877F84BF1092F716A5
:101030001092F8161092F9161092FA1684B5826082
:1010400084BD84B5816084BD85B5826085BD85B56C
:10105000816085BDEEE6F0E0808181608083E1E81B
:10106000F0E0808182608083808181608083E0E81D
:10107000F0E0808181608083E1EBF0E0808184603A
:101080008083E1E9F0E0808184608083E0EBF0E040
:10109000808181608083E0E9F0E0808181608083ED
:1010A000E4E6F0E080818E7F8083ECE7F0E08081F1
:1010B0008F778083808180648083EAE7F0E080819D
:1010C0008460808380818260808380818068808367
:1010D0001092C1001092C90008959091970A982B20
:1010E0009093970A80FF32C0809164008E7F809336
:1010F000640080917C008F7780937C0080917C00DD
:10110000806480937C0080917A00846080937A0070
:1011100080917A00826080937A0080917A00806862
:1011200080937A00809164008F778093640080912F
:1011300064008B7F80936400809164008D7F809336
:101140006400809165008E7F809365000895282F4C
:1011500020959091970A92239093970A80FF1EC042
:1011600080917A008F7780937A008091640081600B
:101170008093640080916400806880936400809113
:101180006400846080936400809164008260809336
:1011900064008091650081608093650008951F92CE
:1011A0000F920FB60F920BB60F9211242F933F930D
:1011B0004F935F936F937F938F939F93AF93BF935F
:1011C000EF93FF93F89481E08093620AE0E6F0E009
:1011D00080818068808380818F7B808383E060E072
:1011E0000E9424097894FF91EF91BF91AF919F9154
:1011F0008F917F916F915F914F913F912F910F90C0
:101200000BBE0F900FBE0F901F901895282F30E047
:10121000C901895E9E4FFC0194912C513F4FF90109
:101220008491882381F0E82FF0E0E453FF4FE491AC
:10123000F0E0662329F480819095892380830895C6
:101240008081892B80830895482F50E0CA01865BF6
:101250009E4FFC012491CA01895E9E4FFC0194912E
:101260004C515F4FFA0134913323C1F1222331F104
:10127000233021F4809180008F7705C0243031F431
:10128000809180008F7D8093800018C0213019F4F8
:1012900084B58F7704C0223021F484B58F7D84BD5E
:1012A0000DC0263021F48091B0008F7705C0273023
:1012B00029F48091B0008F7D8093B000E32FF0E09F
:1012C000EC52FF4FE491F0E0662329F48081909581
:1012D0008923808308958081892B80830895482FF6
:1012E00050E0CA01865B9E4FFC012491CA01895ED1
:1012F0009E4FFC0194914C515F4FFA01349133237E
:1013000019F420E030E035C0222331F1233021F4FC
:10131000809180008F7705C0243031F48091800067
:101320008F7D8093800018C0213019F484B58F77A9
:1013300004C0223021F484B58F7D84BD0DC02630D9
:1013400021F48091B0008F7705C0273029F4809177
:10135000B0008F7D8093B000E32FF0E0E452FF4FA8
:10136000E491F0E0808120E030E0892311F021E079
:1013700030E0C9010895FC01138A148A158A168A7F
:10138000178A108E118E128E138E148E158E168E55
:10139000178E10A211A212A213A214A20895262F32
:1013A000862F6AE00E948B50492F30E0C901841BD0
:1013B00091096AE070E00E94AB50E4E0660F771F8D
:1013C000EA95E1F7842F862B089508950F931F93D4
:1013D000CF93DF93DC0102EE13E055968C91559785
:1013E000843009F452C0853040F4823031F18330CA
:1013F000C0F5813009F0C1C00AC0863009F46DC063
:10140000863008F456C0873009F0B7C07AC08DB76F
:101410009EB742970FB6F8949EBF0FBE8DBFEDB733
:10142000FEB73196CDB7DEB71A83098384E194E025
:10143000938382838CE294E077C0CDB7DEB7629766
:101440000FB6F894DEBF0FBECDBFEDB7FEB7319635
:101450001A83098384E194E09383828383E394E095
:1014600063C0CDB7DEB762970FB6F894DEBF0FBE8C
:10147000CDBFEDB7FEB731961A83098384E194E0BE
:10148000938382838AE394E04FC0CDB7DEB762973F
:101490000FB6F894DEBF0FBECDBFEDB7FEB73196E5
:1014A0001A83098384E194E09383828382E494E045
:1014B0003BC0CDB7DEB762970FB6F894DEBF0FBE64
:1014C000CDBFEDB7FEB731961A83098384E194E06E
:1014D000938382838CE494E027C0CDB7DEB7629714
:1014E0000FB6F894DEBF0FBECDBFEDB7FEB7319695
:1014F0001A83098384E194E09383828385E594E0F1
:1015000013C0CDB7DEB762970FB6F894DEBF0FBE3B
:10151000CDBFEDB7FEB731961A83098384E194E01D
:10152000938382838CE594E09583848353968C9196
:1015300053978683178254968C915497808711868F
:1015400059968C9159978287138656968C91569707
:101550008487158657968C91579786871786589655
:101560008C91808B118A0E9468028DB79EB742963B
:101570000FB6F8949EBF0FBE8DBFC801DF91CF910B
:101580001F910F910895DF92EF92FF920F931F9397
:101590008C01D62EAFEFEA2EA2E1FA2EC70168E643
:1015A00070E00E94D937C7016D2D0E94FB370D0DE9
:1015B000111DC701F80160810E94FB37C7010E941D
:1015C00022381F910F91FF90EF90DF900895809146
:1015D000A70A8C7F8093A70A88E99AE06FE00E94AF
:1015E000C30A08950F931F93CF93DF93EC018FEFFE
:1015F00092E168E670E00E94D9378FEF92E160E0F7
:1016000070E00E941F38CE01688D0E94CF09888348
:10161000CE016F890E94CF098983CE016E890E9415
:10162000CF098A838D898B83CE01698D0E94CF0972
:101630008C83CE016C890E94CF098D83CE016B898A
:101640000E94CF098E8300E010E0FE01E00FF11F41
:101650008FEF92E160810E94FB370F5F1F4F0730D1
:10166000110599F78FEF92E10E942238DF91CF9117
:101670001F910F910895DC01FB012181205380818E
:1016800080533AE0839FC0011124280F53962C9376
:1016900053972481205383818053839FC001112459
:1016A000280F54962C93549727812053868180537A
:1016B000839FC0011124280F59962C935997228596
:1016C000205381858053839FC0011124280F559694
:1016D0002C9355972585205384858053839FC00183
:1016E0001124280F56962C935697208920538785CE
:1016F0008053839FC0011124280F57962C9357972E
:101700002389205382898053839FC0011124280F8D
:1017100058962C935897CD010E94F20A0895CF92C3
:10172000DF92EF92FF921F93CF93DF937C01162FEE
:101730008FEF92E168E670E00E94D9378FEF92E177
:1017400060E070E00E941F388FEF92E10E94223823
:101750008FEF92E168E670E042E150E00E9443388A
:10176000C0E0D0E0C12EDD241AE009C18FEF92E184
:101770000E94E337882309F402C18FEF92E10E94AF
:10178000E937282FF701EC0FFD1F8083C630D10504
:1017900009F482C0C730D105B8F4C230D10509F4CC
:1017A0004EC0C330D10538F4209769F1C130D1055E
:1017B00009F0E4C036C0C430D10509F451C0C530C9
:1017C000D10508F05BC049C0CA30D10509F49BC0FF
:1017D000CB30D10558F4C830D10509F478C090E079
:1017E0002F70C930D10508F081C064C0CC30D1055C
:1017F00009F4A7C0CC30D10508F494C0CD30D10590
:1018000009F0BCC0ADC090E0E4E095958795EA95FD
:10181000E1F7819FC00111242F70280FF701208F5D
:10182000ADC090E074E0959587957A95E1F7819F3A
:10183000C00111242F70280FF701278B9FC090E063
:1018400064E0959587956A95E1F7819FC001112421
:101850002F70280FF701268B91C0F701858B8EC062
:1018600090E054E0959587955A95E1F7819FC001E6
:1018700011242F70280FF701218F80C090E044E0E1
:10188000959587954A95E1F7819FC00111242F70A6
:10189000280FF701248B72C090E034E0959587956E
:1018A0003A95E1F7819FC00111242F70280FF701AD
:1018B000238B64C0B4E095958795BA95E1F787705E
:1018C000819FC0011124280FF701228F57C090E09B
:1018D000A4E095958795AA95E1F78770819FC0014F
:1018E00011242F70280FF701238F48C0F4E095953D
:1018F0008795FA95E1F78370819FC0011124280F25
:10190000F701248F3BC090E0E4E095958795EA9538
:10191000E1F78370819FC00111242F70280FF70118
:10192000258F2CC090E074E0959587957A95E1F726
:101930008770819FC00111242F70280FF701268F17
:101940001DC090E064E0959587956A95E1F78370F6
:10195000819FC00111242F70280FF701278F0EC01F
:1019600090E054E0959587955A95E1F78370819FB3
:10197000C00111242F70280FF70120A32196CC1647
:10198000DD0608F0F3CEDF91CF911F91FF90EF902D
:10199000DF90CF9008950F931F938C0166E00E9413
:1019A0008F0BC8010E94E6091F910F9108950F93B4
:1019B0001F93CF93DF93EC01042F6DA380E361E0CD
:1019C0000E9406091DA1113019F0103199F40DC0C3
:1019D00080E361E00E942409013019F482E08A8BDF
:1019E00009C0002339F41A8B05C080E360E00E942F
:1019F00024091A8ADF91CF911F910F910895CF93F7
:101A0000DF93EC0161E040E00E94D70C8091FF126F
:101A1000882321F48FEF92E10E944638CE010E9484
:101A2000E70ACE010E94BB09CE016DE00E948F0B38
:101A3000DF91CF9108950E94FF0C089508956F9251
:101A40007F928F929F92AF92BF92CF92DF92FF923E
:101A50000F931F93DF93CF93CDB7DEB7C655D0401A
:101A60000FB6F894DEBF0FBECDBFFC01E959FE4FA3
:101A7000808091803496C080D180FF24F3948E01C1
:101A80000F5F1F4F4CE2642E712C6C0E7D1E3CE4E8
:101A9000A32EB12CAC0EBD1E1FC0D301F8018BE2EA
:101AA00001900D928150E1F7F501808184FF14C00F
:101AB00086E39CE0B80145E954E022E00E9420134F
:101AC000882351F086E39CE0B80148E954E023E024
:101AD0000E9420138111FF24C601B8010E94F93A27
:101AE0008823D9F6FF2029F1FF24F3948E010F5F9C
:101AF0001F4F19C086E39CE0B80145E954E022E09D
:101B00000E942013882379F086E39CE0B80148E91D
:101B100054E023E00E942013882329F0C401B80177
:101B20000E941D3AF822C601B8010E94F93A8823A2
:101B300009F78F2DCA5ADF4F0FB6F894DEBF0FBEDC
:101B4000CDBFCF91DF911F910F91FF90DF90CF908C
:101B5000BF90AF909F908F907F906F900895EF927D
:101B6000FF920F931F93DF93CF93CDB7DEB78C0116
:101B7000FC01E959FE4F80819181BE01675F7F4F73
:101B80000E94F9447C01009711F480E00BC00559D4
:101B90001E4FF801808191810E940A3AF801F1827A
:101BA000E08281E0CF91DF911F910F91FF90EF9044
:101BB00008950F931F938C0105591E4FF8018081E2
:101BC00091810E940A3A04501040F801819191914C
:101BD0008F010E945D38F801808191810E94FD454E
:101BE0008DE160E00E9406098EE160E00E94060936
:101BF00080E260E00E9406098FE160E00E94060931
:101C00001F910F910895CF93DF93EC018CE10E9417
:101C10006F09892B11F081E004C0CE010E94D90D1B
:101C200080E0DF91CF910895AF92BF92CF92DF9283
:101C3000EF92FF920F931F93DF93CF93CDB7DEB751
:101C4000AB970FB6F894DEBF0FBECDBF8C015B0122
:101C500005591E4FF801C080D1800B561140C801B4
:101C60000E94030E54E6E52E51E0F52EE00EF11E23
:101C7000882359F481E890E0F70191838083C801BB
:101C80006CE974E00E94390217C0F70180819181EC
:101C90008F7791838083C601B501AE014F5F5F4F9F
:101CA0000E949B41882311F081E007C0F7018081E9
:101CB000918180689183808380E0AB960FB6F89421
:101CC000DEBF0FBECDBFCF91DF911F910F91FF906F
:101CD000EF90DF90CF90BF90AF900895CF92DF92BA
:101CE000EF92FF920F931F93CF93DF93EC017B0151
:101CF0006A01C559DE4F08811981CB56D140CE010A
:101D00000E94030E8823D1F4CC59DE4F81E090E08D
:101D100099838883C456D140CE016CE974E00E9457
:101D2000390280E011C0C601B7010E94300200975D
:101D300029F4C8010E94103A81E006C0C801B6012A
:101D40000E94F93A882379F7DF91CF911F910F9183
:101D5000FF90EF90DF90CF900895AF92BF92CF9217
:101D6000DF92EF92FF920F931F93DF93CF93CDB744
:101D7000DEB7AB970FB6F894DEBF0FBECDBF8C01B8
:101D80006B0105591E4FF801A080B1800B56114020
:101D9000C8010E94030EF801EC59FE4F882351F44C
:101DA00081E091E091838083C8016CE974E00E9436
:101DB000390221C0808191819E7F91838083C801F7
:101DC000B6017E010894E11CF11CA7010E946E0E71
:101DD000882349F4C501B601A7010E94DC4088238D
:101DE00011F081E009C0F801EC59FE4F808191812A
:101DF00091609183808380E0AB960FB6F894DEBF4C
:101E00000FBECDBFCF91DF911F910F91FF90EF904B
:101E1000DF90CF90BF90AF900895CF92DF92EF9276
:101E2000FF920F931F93DF93CF93CDB7DEB7AB979E
:101E30000FB6F894DEBF0FBECDBF8C016B010E94C0
:101E4000030EE4E6EE2EE1E0FE2EE00EF11E882306
:101E500059F481E490E0F70191838083C8016CE933
:101E600074E00E94390215C0F701808191818F7B57
:101E700091838083C801B601AE014F5F5F4F0E941E
:101E80006E0E882359F4F7018081918180649183DB
:101E900080832FEF3FEF4FEF5FEF04C02CA13DA1F8
:101EA0004EA15FA1B901CA01AB960FB6F894DEBF8F
:101EB0000FBECDBFCF91DF911F910F91FF90EF909B
:101EC000DF90CF900895AF92BF92CF92DF92EF92C2
:101ED000FF920F931F93DF93CF93CDB7DEB7AB97EE
:101EE0000FB6F894DEBF0FBECDBF8C016B01095950
:101EF0001E4FF801A080B18007561140C8010E9412
:101F0000030EF4E6EF2EF1E0FF2EE00EF11E882323
:101F100059F481E490E0F70191838083C8016CE972
:101F200074E00E94390216C0F701808191818F7B95
:101F300091838083C801B6018E010F5F1F4FA801F6
:101F40000E946E0E882349F4F7018081918180649C
:101F50009183808320E030E00CC0C501B8010E946D
:101F600036459C01009729F4C501B8010E94364509
:101F70009C01C901AB960FB6F894DEBF0FBECDBF72
:101F8000CF91DF911F910F91FF90EF90DF90CF9055
:101F9000BF90AF9008956F927F928F929F92BF9261
:101FA000CF92DF92EF92FF920F931F93DF93CF9325
:101FB00000D000D0CDB7DEB77C014B013A010983D8
:101FC0001A832B833C830E94030EF701EC59FE4FCA
:101FD000882359F481E092E091838083C7016CE902
:101FE00074E00E94390280E094C0808191819D7FDD
:101FF00091838083C701B4010E94630F6C01009735
:10200000F9F400D000D000D0EDB7FEB73196ADB7EF
:10201000BEB71296FC92EE92119787EC94E09383F0
:102020008283958284820E946802BB24B3948DB718
:102030009EB706960FB6F8949EBF0FBE8DBF2BC0FD
:10204000BE016F5F7F4F40E00E942043882311F064
:10205000BB2421C000D000D000D0EDB7FEB7319630
:10206000ADB7BEB71296FC92EE9211978AED94E04E
:1020700093838283958284820E9468028DB79EB783
:1020800006960FB6F8949EBF0FBE8DBFC6010E9484
:10209000043ABB24B39486E39CE0B3010E94151379
:1020A000BB2049F58C01C601B301A8010E947C4305
:1020B0008017910709F43FC000D000D000D0EDB7E1
:1020C000FEB73196ADB7BEB71296FC92EE9211975D
:1020D00080EF94E093838283958284820E946802D9
:1020E0008DB79EB706960FB6F8949EBF0FBE8DBFF4
:1020F000C6010E94043AF701EC59FE4F808191819C
:10210000926091838083BB24B39480E0BB2009F468
:1021100081E00F900F900F900F90CF91DF911F9162
:102120000F91FF90EF90DF90CF90BF909F908F9096
:102130007F906F900895C6010E94043AE6CFAF9257
:10214000BF92CF92DF92EF92FF920F931F937C0189
:102150006B015A010E940D0F8B019C01C701B60152
:10216000A5010E94CB0F1F910F91FF90EF90DF9080
:10217000CF90BF90AF900895EF92FF921F93CF93AF
:10218000DF93EC017B010E949F10182F882339F008
:10219000CE01B70146E055E00E949F101823812F21
:1021A000DF91CF911F91FF90EF900895AF92BF9272
:1021B000CF92DF92EF92FF920F931F93DF93CF9313
:1021C000CDB7DEB7AB970FB6F894DEBF0FBECDBF6D
:1021D0008C016B0109591E4FF801A080B180075690
:1021E0001140C8010E94030E8823B9F0C801B6014E
:1021F0007E010894E11CF11CA7010E946E0E882349
:1022000039F0C501B7010E94F9447C01009731F50E
:10221000C8010E94030E882379F40C591E4F81E0F7
:1022200090E0F8019183808304561140C8016CE965
:1022300074E00E9439021EC0C801B6017E010894F4
:10224000E11CF11CA7010E946E0E882399F0C501C4
:10225000B7010E94F9447C01009761F005591E4FB7
:10226000F801808191810E940A3AF801F182E082AE
:1022700081E001C080E0AB960FB6F894DEBF0FBEE0
:10228000CDBFCF91DF911F910F91FF90EF90DF9025
:10229000CF90BF90AF900895EF92FF920F931F934E
:1022A000DF93CF93CDB7DEB7C655D0400FB6F894C5
:1022B000DEBF0FBECDBF8C017B010E94030E8823C1
:1022C00079F40C591E4F81E090E0F80191838083EE
:1022D00004561140C8016CE974E00E94390270C0D4
:1022E00086E39CE0B70145E954E022E00E94201318
:1022F000882329F4C80160E00E941F0D85C0C80131
:10230000B7017E010894E11CF11CA7010E946E0E2A
:10231000882309F455C0DE019C96F7018BE20190F9
:102320000D928150E1F7FE01E45BFF4F80819E0139
:102330002F5F3F4F84FF54C08DB79EB78B970FB66A
:10234000F8949EBF0FBE8DBFADB7BEB71196F90111
:102350008BE201900D928150E1F7C8010E94AF0D10
:10236000EDB7FEB7BB960FB6F894FEBF0FBEEDBF3C
:10237000882331F1C80160E00E941F0DF82EC801CA
:1023800065E275E00E94D6108823D1F0FF20C9F0E5
:10239000DE019C96FE0131968BE201900D928150F8
:1023A000E1F709591E4FF80180819181BE01645DFA
:1023B0007F4F0E941D3A90E0811191E0F92201C007
:1023C000FF248F2DCA5ADF4F0FB6F894DEBF0FBE21
:1023D000CDBFCF91DF911F910F91FF90EF900895A6
:1023E000DE019C96F9018BE201900D928150E1F79C
:1023F00009591E4FF80180819181BE01645D7F4FB4
:102400000E941D3A811181E0F82EDBCF8BE161E063
:102410000E9406098CE160E00E9406090895CF92AF
:10242000DF92EF92FF920F931F93DF93CF93CDB77D
:10243000DEB7AB970FB6F894DEBF0FBECDBF7C0101
:102440000E94030E882361F424E631E0E20EF31EBD
:1024500081E090E0F701918380832CE934E083C030
:102460000E946349882361F424E631E0E20EF31E02
:1024700082E090E0F7019183808325EB35E073C023
:1024800085E398E463EF78E444E457E42FEF39E41C
:1024900000E00E94054619E6C12E11E0D12ECE0CB7
:1024A000DF1CF60191838083892BE1F485E398E4B6
:1024B00063EF78E444E457E42FEF39E40FEF0E9430
:1024C0000546F60191838083892B61F424E631E08F
:1024D000E20EF31E84E090E0F7019183808322ED09
:1024E00035E041C0F701E759FE4F808191810E949C
:1024F000DB3CB7E6CB2EB1E0DB2ECE0CDF1CF601C9
:1025000091838083009761F424E631E0E20EF31EAC
:1025100088E090E0F701918380832BEE35E023C0C3
:1025200065E076E08E010F5F1F4FA8010E946C45A9
:10253000F60180819181B8010E94F9442BE631E0D7
:10254000E20EF31EF701918380833797892B39F4CC
:1025500080E190E09183808327E036E004C011821F
:1025600010822FE136E0C901AB960FB6F894DEBFBA
:102570000FBECDBFCF91DF911F910F91FF90EF90D4
:10258000DF90CF900895FC01EA59FE4F60836130DF
:1025900019F0623081F40BC08BE161E00E942409E4
:1025A0006AE070E080E090E00E94CA0708958BE145
:1025B00060E00E94240908950F931F938C010E94EC
:1025C0000612C80161E00E94C312C8010E940F12E6
:1025D0001F910F9108951092350C08950F931F933A
:1025E0008C018DE0F80160810E94C54E8AE0F801FF
:1025F00060810E94C54E1F910F9108950F931F9304
:102600008C01CB01F80160810E94D64EC8010E9466
:10261000EE121F910F910895FC0160E076E980E0D1
:1026200090E040810E94AC4F0895FB0120E030E033
:1026300002C02F5F3F4F81918823D9F7C9010895C8
:102640001F93CF93DF93EB01BA0110E040E050E01D
:1026500030E00CC0FE01E40FF51FDB01A40FB51F35
:1026600090818C91981311E04F5F5F4F4217530791
:102670008CF3812FDF91CF911F9108956833A1F1E1
:10268000693380F4643341F1653338F4623301F126
:10269000633300F56133D1F417C0663309F1673352
:1026A00008F51CC0633441F1643438F4613401F13D
:1026B000623400F5693351F419C0653409F16534A9
:1026C000E8F0663419F41EC081E01DC080E01BC034
:1026D00082E019C083E017C084E015C085E013C014
:1026E00086E011C087E00FC088E00DC089E00BC014
:1026F0008AE009C08BE007C08CE005C08DE003C014
:102700008EE001C08FE04733A1F1483380F44333BA
:1027100041F1443338F44133F1F0423300F54033B2
:10272000E1F51BC0453309F1463308F51CC04234BE
:1027300041F1433438F4493301F14933E0F0413495
:1027400061F51DC0443409F14434E8F04534F9F032
:102750004634F9F0089591E01DC090E01BC092E06E
:1027600019C093E017C094E015C095E013C096E03F
:1027700011C097E00FC098E00DC099E00BC09AE03F
:1027800009C09BE007C09CE005C09DE003C09EE03F
:1027900001C09FE08295807F890F0895089510926F
:1027A000180E08950F931F938C018DE0F80160813E
:1027B0000E94C54E8AE0F80160810E94C54E1F91BB
:1027C0000F910895EF92FF920F931F93CF93DF9392
:1027D000EC017A018B0177FF0CC08DE268810E94C9
:1027E000C54E10950095F094E094E11CF11C011D7C
:1027F000111DC801B7012AE030E040E050E0088137
:102800000E94EC4EDF91CF911F910F91FF90EF90BE
:1028100008950F931F93FC01DA018B0121153105F7
:1028200029F4842F60810E94C54E0EC02A303105E4
:1028300019F40E94E21308C030E040E050E0BD010E
:10284000C80100810E94EC4E1F910F9108950F93D3
:102850001F938C010E940914C8010E94D2131F917A
:102860000F910895FC01CB0160810E94D64E08951E
:102870000F931F938C01CB01F80160810E94D64E0B
:10288000C8010E94D2131F910F910895FC0180810D
:102890000E942F4E0895FC0180810E94F44D0895FE
:1028A000FC0180810E94D04D0895FC0160E076E932
:1028B00080E090E040810E94AC4F86E161E00E94A0
:1028C00006090895CF93DF93EC016983623099F094
:1028D000633049F06130A1F40E94551486E161E053
:1028E0000E9424090DC086E160E00E9424098881CD
:1028F0000E948E4F05C08EE690E161E00E94913704
:10290000DF91CF91089508950F931F938C01035287
:102910001E4FF801619341938F01208307591140A5
:10292000F8011082055F1F4FF8011082045F1F4FEE
:10293000F80110820E511F4FF80110820D51104006
:1029400083E1F80181938F0188E880830E5F1F4F38
:10295000F80111928F011082095E1F4F89E1F80181
:1029600080830D5F1F4F8FE1F80181938F018EEF00
:1029700080830A5D1F4FF801119284E081938F01DB
:1029800088E28083095F1F4FF801108207521F4FB2
:10299000F8011192119211928CE28193119211928D
:1029A000119211928F01108203571040F801118289
:1029B00010820C5C1F4FF80111921192119211922A
:1029C0001192119211921192119211928F01108213
:1029D000118212821382075D1F4FF80111928F013D
:1029E00010820F56104092E0F801908300591F4F5B
:1029F00081E0F80180830F561040F8019193919384
:102A00008F0190830C5D1140C8010E94041AC80117
:102A10000E94B2181F910F9108950F931F93CF93A7
:102A2000DF93DC018B01EC01CC5EDD4F1982188253
:102A300040E0BE0106C04F5F2F5F3F4FFB01318377
:102A40002083FB0120813181F801E20FF31F808197
:102A5000882389F7469583E090E09983888390E006
:102A6000ED01CC5EDD4F50E00BC0FD01E20FF31F26
:102A7000EE5DFD4F8081980F2F5F3F4F3983288394
:102A8000288139812417350780F3892F8095A40F79
:102A9000B51FAF5DBD4F8C93DF91CF911F910F910B
:102AA0000895DF92EF92FF920F931F93CF93DF93DE
:102AB000890180E090E0F3E1DF2EEEE7EE2E31E1D8
:102AC000F32E37C02F5F3F4F9C919D3731F0119609
:102AD000319624173507B0F32DC02417350750F56C
:102AE000E9012196E60FF71F8181833361F084337A
:102AF00018F4813369F405C08D3549F08E3541F401
:102B000004C0FC9205C0DC9203C0EC9201C09C930F
:102B100041505040F901E00FF11FE60FF71F02C0CE
:102B2000818180832F5F3F4F3196CE012417350777
:102B3000B8F39C012417350738F4F901E00FF11FB1
:102B4000DB01AE0FBF1FC0CFDF91CF911F910F915F
:102B5000FF90EF90DF900895EF92FF920F931F93F5
:102B6000CF93DF938C01EB017A01FC01EC5EFD4F0A
:102B70002D5F3F4F3183208323503040A0E0B0E0F1
:102B8000AF010BC0FE01E60FF71F8081A80FB11D3A
:102B90006F5F7F4FFA0171836083FA0160817181F9
:102BA0006E157F0578F3AF3FB10521F0AF3F11F00F
:102BB00081E008C008521E4FC20FD31F8C81F8015C
:102BC000808380E0DF91CF911F910F91FF90EF9074
:102BD0000895EF92FF920F931F93CF93DF93EC0131
:102BE000C052DE4FE8808DEEE80E23978881CD5DE0
:102BF000D140813009F0C9C0CD5DDE4FF880C352AD
:102C0000D140FA948E010C5E1D4FD8011D921C928A
:102C1000B8012F2D30E087E290E0289FA001299F86
:102C2000500D389F500D11244C0F5D1F11C0FA013B
:102C3000EA0FFB1FE05AFF4FAC0FBD1FAE51BE4F56
:102C40008C918083FB0180819181019691838083A7
:102C5000FB01A081B181A230B10548F3D8011D92DA
:102C60001C92AE014C5E5D4F2F2D30E087E290E06C
:102C7000289FB001299F700D389F700D11246C0F93
:102C80007D1F11C0FB01EA0FFB1FEE59FF4FAC0F78
:102C9000BD1FAC51BE4F8C918083FA018081918120
:102CA000019691838083FA01A081B181A430B1059E
:102CB00048F311821082BE016C5E7D4F2F2D30E0F3
:102CC00087E290E0289FA001299F500D389F500D6A
:102CD00011244C0F5D1F12C0FA01EA0FFB1FEA59C5
:102CE000FF4FAC0FBD1FA851BE4F8C918083DB01FD
:102CF0008D919C91119701968D939C93FB01A081DE
:102D0000B181A430B10540F387E290E0289FF00143
:102D1000299FF00D389FF00D1124EC0FFD1FEA578D
:102D2000FF4FC451DE4F8881CC5ED1408083E6588E
:102D3000F040AE0140525E4FDA018D919C910D97AB
:102D400020F1DB011D921C929E012C5E3D4FBA01C9
:102D5000AF0111C0FA01EA0FFB1FE659FF4FAC0F9C
:102D6000BD1FA351BE4F8C918083F9018081918159
:102D7000019691838083F901A081B181FB0180815B
:102D800091810C97A817B90728F3C352DE4F8881A9
:102D9000CD5DD1408250843008F047C1CD5DDE4F1B
:102DA000F880C352D140FA948E010C5E1D4FD801B9
:102DB0001D921C92B8012F2D30E087E290E0289FF1
:102DC000A001299F500D389F500D11244C0F5D1FFD
:102DD00011C0FA01EA0FFB1FE05AFF4FAC0FBD1FF5
:102DE000AE51BE4F8C918083FB0180819181019611
:102DF00091838083FB01A081B181A230B10548F3AA
:102E0000D8011D921C92AE014C5E5D4F2F2D30E01B
:102E100087E290E0289FB001299F700D389F700DC8
:102E200011246C0F7D1F11C0FB01EA0FFB1FEE592F
:102E3000FF4FAC0FBD1FAC51BE4F8C918083FA0188
:102E400080819181019691838083FA01A081B18173
:102E5000A430B10548F311821082AE014C5E5D4F83
:102E60002F2D30E087E290E0289FB001299F700D60
:102E7000389F700D11246C0F7D1F12C0FB01EA0FEB
:102E8000FB1FEA59FF4FAC0FBD1FA851BE4F8C91DD
:102E90008083DA018D919C91119701968D939C937B
:102EA000FA01A081B181A430B10540F311821082F2
:102EB000AE014C5E5D4F0E2D10E02F2D30E087E20D
:102EC00090E0289FB001299F700D389F700D11244C
:102ED0006C0F7D1F12C0FB01EA0FFB1FE659FF4F6D
:102EE000AC0FBD1FA451BE4F8C918083DA018D9130
:102EF0009C91119701968D939C93FA01A081B181C9
:102F0000A017B10740F311821082BE016C5E7D4FA5
:102F10002F2D30E087E290E0289FA001299F500DDF
:102F2000389F500D11244C0F5D1F14C0FA01EA0F99
:102F3000FB1FE258FF4FAC0FBD1FA00FB11FA351E5
:102F4000BE4F8C918083DB018D919C9111970196EE
:102F50008D939C93FB01A081B181A230B10530F328
:102F600087E290E0289FD001299FB00D389FB00DD7
:102F70001124AC0FBD1FA058BF4FFE01EE0DF11D77
:102F8000E151FE4F81918D9380818C93A158B04087
:102F9000FB0111821082AE014C5E5D4FBD0114C079
:102FA000FB01EA0FFB1FEE57FF4FAC0FBD1FA00F39
:102FB000B11FAF50BE4F8C918083DA018D919C91EF
:102FC000119701968D939C93FA01A081B181A23053
:102FD000B10530F311821082BE016C5E7D4F87E235
:102FE00090E0289FA001299F500D389F500D11247B
:102FF0004C0F5D1F14C0FA01EA0FFB1FEC57FF4F87
:10300000AC0FBD1FA00FB11FAD50BE4F8C91808380
:10301000DB018D919C91119701968D939C93FB01FF
:10302000A081B181A230B10530F3DF91CF911F9122
:103030000F91FF90EF900895CF92DF92EF92FF9261
:103040000F931F93CF93DF93EC016B017A01B901CA
:10305000FC01EC5EFD4F0D5F1F4F11830083035099
:103060001040A0E0B0E09F010BC0F601E40FF51F97
:103070008081A80FB11D4F5F5F4FF90151834083DD
:10308000F901408151814617570778F3AF3FB105E9
:1030900019F0AF3F09F05AC0F601E00FF11F95811A
:1030A000D70115968C911597981709F04FC0968106
:1030B00016968C91981709F049C09B01201B310B83
:1030C0002930310529F48781882309F442C03EC0A4
:1030D00087818823D9F5FE01EC5EFD4F11821082B5
:1030E000BF012950304012C0FE01E40FF51FEE5120
:1030F000FE4FD601A40FB51FA00FB11F18968C91DB
:1031000080834F5F5F4FFB0151834083DB014D9113
:103110005C914217530740F3C052DE4F3983288336
:10312000C05ED140F70185818E3491F4868184346C
:1031300079F42230310530F0FE01ED5DFE4F8081E3
:103140008F5F8083CE010E94E91502C081E001C03B
:1031500080E0DF91CF911F910F91FF90EF90DF9072
:10316000CF900895FC01EC5EFD4F11821082DF01CB
:103170000BC0FC01E20FF31FEE5DFD4F10822F5FCD
:103180003F4F11963C932E932D913C9111972E31E8
:10319000310578F308950895CF92DF92EF92FF9270
:1031A0000F931F93CF93DF936C01FC01EC5EFD4FF7
:1031B000118210828F01E62EFF24E701CC0FDD1F64
:1031C000CC0FDD1FCE0DDF1D1CC0EC0FFD1F3B968D
:1031D000EE0FFF1FEC0DFD1D808191810E94BD014E
:1031E000D8018D919C911197FE01E80FF91F3B9634
:1031F000EE0FFF1FEC0DFD1D1182108201968D93C5
:103200009C93D801ED91FC91E530F105F0F2870136
:10321000000F111F0C0D1D1D075B1F4FD801ED91F5
:10322000FC9115AA16AA17AA10AECF010E94BD01E3
:10323000F80111821082F601ED5AFF4F8081815012
:103240008083DF91CF911F910F91FF90EF90DF90DE
:10325000CF900895AF92BF92CF92DF92FF920F93DB
:103260001F93CF93DF936C01FF2460E070E08C012B
:103270000C5E1D4FD8016D937C93EB01AA96CC0F89
:10328000DD1FCC0DDD1D23C05F010894A11CB11C06
:10329000A881B981A555BF4FBB96EE0FFF1FEC0D5E
:1032A000FD1D0190F081E02DE555FF4F2D913D91E1
:1032B0004D915C9180819181A281B38182179307A6
:1032C000A407B50754F4F394F801B182A082D801A1
:1032D000ED91FC91E430F105B8F2B4E0FB1621F475
:1032E000F62E65E070E002C0F62EF3946F5F7F4F1C
:1032F0006530710508F4BECF0F2D10E0065D1F4F3D
:10330000000F111F0C0D1D1DF801808191810E947D
:10331000BD01D8011D921C928F2DDF91CF911F917D
:103320000F91FF90DF90CF90BF90AF900895AF9234
:10333000BF92CF92DF92FF920F931F93CF93DF93B1
:103340006C01FF2460E070E08C010C5E1D4FD80121
:103350006D937C93EB01AA96CC0FDD1FCC0DDD1D88
:1033600023C05F010894A11CB11CA881B981A55597
:10337000BF4FBB96EE0FFF1FEC0DFD1D0190F081BE
:10338000E02DE555FF4F2D913D914D915C91808150
:103390009181A281B381281739074A075B0754F44A
:1033A000F394F801B182A082D801ED91FC91E43050
:1033B000F105B8F2B4E0FB1621F4F62E65E070E0FA
:1033C00002C0F62EF3946F5F7F4F6530710508F4ED
:1033D000BECF0F2D10E0065D1F4F000F111F0C0D0B
:1033E0001D1DF801808191810E94BD01D8011D92AF
:1033F0001C928F2DDF91CF911F910F91FF90DF9045
:10340000CF90BF90AF9008950F931F93CF93DF930A
:103410008C01FC01EC5EFD4F11821082EF0116C0A1
:10342000BA96EE0FFF1FE00FF11F808191810E947D
:10343000BD01888199818A96FC01EE0FFF1FE00F84
:10344000F11F11821082899799838883E881F9811D
:10345000E530F10528F3DF91CF911F910F91089589
:10346000AF92BF92CF92DF92EF92FF920F931F9392
:10347000CF93DF93EC0109E4A02EB12CA80EB91E66
:10348000EE24FF2414E1C12E12E0D12EC80ED91E65
:10349000D6011D921C928701000F111F000F111FF2
:1034A0000E0D1F1D1CC0E00FF11F3B96EE0FFF1FFE
:1034B000EC0FFD1F808191810E94BD01F60180818A
:1034C0009181F801E80FF91F3B96EE0FFF1FEC0FFB
:1034D000FD1F118210820196D6018D939C93D60117
:1034E000ED91FC91E530F105F0F2D501ED91FC9103
:1034F00015AA16AA17AA10AECF010E94BD01F501A8
:10350000119211925F010894E11CF11CF5E0EF1695
:10351000F10409F0BDCFCD5ADF4F1882CC50DE4FF9
:10352000188222961882DF91CF911F910F91FF9000
:10353000EF90DF90CF90BF90AF900895AF92BF9281
:10354000CF92DF92EF92FF920F931F93CF93DF936F
:10355000EC01FC01E95BFD4F108260E070E014E1DA
:10356000A12E12E0B12EA80EB91E7F01D5016D93D8
:103570007C938B01000F111F0C0F1D1F075B1F4F4A
:1035800028C0D8018D919C916F010894C11CD11C59
:10359000F601EE0FFF1FEC0FFD1FE75BFF4F0190E1
:1035A000F081E02DDC01D5962D913D914D915C91FE
:1035B000D89785A996A9A7A9B0AD281739074A07B2
:1035C0005B076CF4F70180818F5F8083D501CD921A
:1035D000DC92D501ED91FC91E430F10590F2F70118
:1035E0008081843021F4608365E070E004C0862F20
:1035F0008F5FD7018C936F5F7F4F6530710508F443
:10360000B5CFFE01EC5EFD4F118210828F0177E491
:10361000E72E72E0F72EEC0EFD1E2FC0F701808121
:1036200090E0FC01EE0FFF1FEE0FFF1FE80FF91FE8
:10363000E20FF31F3B96EE0FFF1FEC0FFD1F808183
:1036400091810E94BD01D7018C9190E0FC01EE0FA9
:10365000FF1FEE0FFF1FE80FF91FD8018D919C91FE
:103660001197E80FF91F3B96EE0FFF1FEC0FFD1FA0
:103670001182108201968D939C93F80120813181F3
:103680002530310558F2D701EC91F0E0EE0FFF1F25
:10369000EC0FFD1FE75BFF4F0190F081E02D15AAB5
:1036A00016AA17AA10AEEC91F0E0EE0FFF1FEC0F78
:1036B000FD1FE75BFF4F808191810E94BD01D70113
:1036C000EC91F0E0EE0FFF1FEC0FFD1FE75BFF4FEB
:1036D00011821082FE01ED5AFF4F8081815080835C
:1036E000C75BDD4F1882DF91CF911F910F91FF9043
:1036F000EF90DF90CF90BF90AF9008952F923F92C0
:103700004F925F926F927F928F929F92AF92BF92F1
:10371000CF92DF92EF92FF920F931F93DF93CF939D
:10372000CDB7DEB760970FB6F894DEBF0FBECDBF42
:103730007C016B01FC01EC5EFD4F1182108229E4DB
:1037400032E0E20EF31ED7018C9127EB3DEFE20E43
:10375000F31E882311F1DF0110C0F901EE0FFF1FE6
:10376000EE0DFF1DE75BFF4F80819181892B59F0A2
:103770002F5F3F4F11963C932E932D913C911197C3
:103780002530310550F347E452E0E40EF51ED70131
:103790002C93E9EBFDEFEE0EFF1E24E132E0E20E8A
:1037A000F31ED7011D921C92E9ECFFEFEE0EFF1EF7
:1037B000D7018C91E3E2FEEFEE0EFF1E813079F02F
:1037C00020EE31E0E20EF31ED7018D919C91E0E2F4
:1037D000FEEFEE0EFF1E0C9770F50C94782D2AE18B
:1037E00032E0E20EF31ED7018C91E6EEFDEFEE0E15
:1037F000FF1E882379F420EE31E0E20EF31ED7019C
:103800008D919C91E0E2FEEFEE0EFF1E059798F47D
:103810000C94782D813079F420EE31E0E20EF31E25
:10382000D7018D919C91E0E2FEEFEE0EFF1E0B970B
:1038300010F40C94782D00E010E06624882477249E
:103840009924B7016C5E7D4FEDED4E2EE1E05E2ECA
:103850004E0C5F1C5BE1252E52E0352E2E0C3F1CDA
:103860009701265E3D4F3E872D87DB011D921C92FE
:10387000F801EE0FFF1FEE0DFF1DE75BFF4F0190FC
:10388000F081E02D85A996A9A7A9B0AD1816190653
:103890001A061B060CF08CC3D2018C91813009F002
:1038A000D0C1AD85BE858C91882309F0E1C0D601D9
:1038B00014969C9114978081981709F079C3AA24D3
:1038C000BB2416968C91833219F431E0A32EB12CCF
:1038D00096012A0D3B1DD90116968C91DB011D9294
:1038E0001C928130A9F0813020F0823009F088C02C
:1038F00070C09389D90117968C911797981709F082
:103900007FC0948918968C91981709F079C07CC073
:10391000FB0111821082A801440F551F4E0D5F1D3F
:10392000475B5F4F17C0FA01A081B181A20FB31F9F
:10393000F601E20FF31FEA0DFB1D1B969C91878198
:10394000981719F0882483940BC02F5F3F4FDB0139
:103950002D933C93FB01208131812430310518F3F4
:10396000DB011D921C92A801440F551F4E0D5F1DD7
:10397000475B5F4F14C0FA01A081B181A20FB31F52
:10398000F601E20FF31FEA0DFB1D1F969C91838544
:103990009817A1F52F5F3F4FDB012D933C93FB015F
:1039A000208131812430310530F325C0992787FDEE
:1039B0009095F601E40FF51FEA0DFB1D278130E01D
:1039C00082179307D9F44F5F5F4FFB015183408308
:1039D00007C0D801AA0FBB1FAE0DBF1DA75BBF4F0D
:1039E000FB0140815181ED91FC911197E40FF51F8E
:1039F00085898332D9F6882039F002C088248394DF
:103A0000F1E06F1609F0D4C2702E21E0A216B104C5
:103A100079F4E02FF0E0EE0FFF1FEE0DFF1DE75BE6
:103A2000FF4F0190F081E02DD60115968C9182AF69
:103A3000E72DF0E0EE0FFF1FEE0DFF1DE75BFF4FE0
:103A4000A081B181DB968C91DB978F5FDB968C93A5
:103A50000190F081E02DD60112962C91129783A946
:103A600094A9820F911D94AB83AB15969C90E3C0F3
:103A7000813009F09DC2D6011A969C911A978081D7
:103A8000981709F095C2AA24BB241C968C91833206
:103A900019F4B1E0AB2EB12C96012A0D3B1DD901D2
:103AA0001C968C91DB011D921C928130A9F0813013
:103AB00020F0823009F088C070C09389D9011D962A
:103AC0008C911D97981709F07FC094891E968C9150
:103AD000981709F079C07CC0FB0111821082A801FF
:103AE000440F551F4E0D5F1D475B5F4F17C0FA0116
:103AF000A081B181A20FB31FF601E20FF31FEA0DFF
:103B0000FB1D1B969C918585981719F0882483943A
:103B10000BC02F5F3F4FDB012D933C93FB012081B6
:103B200031812430310518F3DB011D921C92A8016C
:103B3000440F551F4E0D5F1D475B5F4F14C0FA01C8
:103B4000A081B181A20FB31FF601E20FF31FEA0DAE
:103B5000FB1D1F969C9181899817A1F52F5F3F4F00
:103B6000DB012D933C93FB01208131812430310511
:103B700030F325C0992787FD9095F601E40FF51FD6
:103B8000EA0DFB1D258530E082179307D9F44F5FBE
:103B90005F4FFB015183408307C0D801AA0FBB1FB1
:103BA000AE0DBF1DA75BBF4FFB0140815181ED9161
:103BB000FC911197E40FF51F85898332D9F688208F
:103BC00039F002C088248394F1E06F1609F0F0C147
:103BD000702E21E0A216B10479F4E02FF0E0EE0F90
:103BE000FF1FEE0DFF1DE75BFF4F0190F081E02D01
:103BF000D6011B968C9182AFE72DF0E0EE0FFF1FF0
:103C0000EE0DFF1DE75BFF4FA081B181DB968C912C
:103C1000DB978F5FDB968C930190F081E02DD601CE
:103C200018962C91189783A994A9820F911D94AB93
:103C300083AB1B969C909A94B4E0B91508F0B4C17C
:103C4000F8C68250843008F0B3C1D1018C9188232A
:103C500009F0D2C0D6011B969C911B9780819817C2
:103C600009F0A6C1AA24BB241D968C91833219F4B5
:103C700031E0A32EB12C96012A0D3B1DD9011D96D2
:103C80008C91DB011D921C928130A9F0813020F0D3
:103C9000823009F088C070C09389D9011E968C913A
:103CA0001E97981709F07FC094891F968C919817DA
:103CB00009F079C07CC0FB0111821082A801440F79
:103CC000551F4E0D5F1D475B5F4F17C0FA01A08166
:103CD000B181A20FB31FF601E20FF31FEA0DFB1D26
:103CE0001B969C918685981719F0882483940BC0A5
:103CF0002F5F3F4FDB012D933C93FB0120813181EE
:103D00002430310518F3DB011D921C92A801440FE9
:103D1000551F4E0D5F1D475B5F4F14C0FA01A08118
:103D2000B181A20FB31FF601E20FF31FEA0DFB1DD5
:103D30001F969C9182899817A1F52F5F3F4FDB0159
:103D40002D933C93FB01208131812430310530F3E8
:103D500025C0992787FD9095F601E40FF51FEA0D20
:103D6000FB1D268530E082179307D9F44F5F5F4F24
:103D7000FB015183408307C0D801AA0FBB1FAE0DC2
:103D8000BF1DA75BBF4FFB0140815181ED91FC91AD
:103D90001197E40FF51F85898332D9F6882039F011
:103DA00002C088248394F1E06F1609F001C1702EDF
:103DB00021E0A216B10479F4E02FF0E0EE0FFF1F2E
:103DC000EE0DFF1DE75BFF4F0190F081E02DD60166
:103DD0001C968C9182AFE72DF0E0EE0FFF1FEE0DE9
:103DE000FF1DE75BFF4F0190F081E02D83AD8F5FFA
:103DF00083AFF6019484D3C0823009F0D9C0D601D4
:103E000051969C9151978081981709F0D1C0AA24AE
:103E1000BB2453968C91833219F4B1E0AB2EB12CB4
:103E200096012A0D3B1DD90153968C91DB011D9201
:103E30001C928130A9F0813020F0823009F088C0D6
:103E400070C09389D90154968C915497981709F0B2
:103E50007FC0948955968C91981709F079C07BC0E2
:103E6000FB0111821082A801440F551F4E0D5F1DEA
:103E7000475B5F4F17C0FA01A081B181A20FB31F4A
:103E8000F601E20FF31FEA0DFB1D1B969C9184893E
:103E9000981719F0882483940BC02F5F3F4FDB01E4
:103EA0002D933C93FB01208131812430310518F39F
:103EB000DB011D921C92A801440F551F4E0D5F1D82
:103EC000475B5F4F14C0FA01A081B181A20FB31FFD
:103ED000F601E20FF31FEA0DFB1D1F969C91808DEA
:103EE0009817A1F52F5F3F4FDB012D933C93FB010A
:103EF000208131812430310530F325C0992787FD99
:103F00009095F601E40FF51FEA0DFB1D248930E0C2
:103F100082179307D9F44F5F5F4FFB0151834083B2
:103F200007C0D801AA0FBB1FAE0DBF1DA75BBF4FB7
:103F3000FB0140815181ED91FC911197E40FF51F38
:103F400085898332D9F6882031F002C08824839491
:103F5000F1E06F1669F5702E21E0A216B10479F434
:103F6000E02FF0E0EE0FFF1FEE0DFF1DE75BFF4FB0
:103F70000190F081E02DD60152968C9182AFE72D11
:103F8000F0E0EE0FFF1FEE0DFF1DE75BFF4F01900E
:103F9000F081E02D83AD8F5F83AFF60192889A9414
:103FA000F4E0F91508F445C505E010E066246394D3
:103FB0000F5F1F4F0530110508F457CC24E132E0A4
:103FC000E20EF31ED7011D921C92ECEEFDEFEE0EF9
:103FD000FF1E662009F015C68701095B1D4FD80139
:103FE0007C90E9E4F2E0EE0EFF1E81E0D7018C93B5
:103FF000EAE0FEEFEE0EFF1ED7018C91EDEAFFEF37
:10400000EE0EFF1E853028F0C7010E949E1AD801CF
:104010007C90F701ED5AFF4F80818F5F8083A72C42
:10402000BB2481E090E06EE370E00E94F700FC01A9
:104030002501440C551C4E0C5F1C29E430E0420E57
:10404000531ED2018D939C93009709F4F8C52DED72
:1040500031E0E20EF31ED7018C9123E23EEFE20E37
:10406000F31E813009F084C24AE152E0E40EF51EED
:10407000D7018C9126EE3DEFE20EF31E882309F066
:1040800022C112A6D201ED91FC91D60114968C9119
:104090008083F201008111810E94B207D801D59678
:1040A0006D937D938D939C93D897F701EC5EFD4FB4
:1040B000118210829F01A20111C0FA0160817181F9
:1040C0006A0F7B1FAC0DBD1D8C91DB0119968C9383
:1040D000F90180819181019691838083F901A0810A
:1040E000B181A230B10548F340E050E0D601169608
:1040F0008C91833211F441E050E0D501AA0FBB1F2F
:10410000AE0DBF1DA75BBF4F2D913C911197B6011E
:10411000640F751FFB018681F90181A797012C5E51
:104120003D4FF901118210820D911C911197F801F8
:1041300081A5813089F0813020F0823009F089C07A
:1041400063C0FB018781F801838BED91FC91DB015A
:1041500018968C91848B7DC0F901118210824901DF
:10416000BD0114C0FB01008111810A0F1B1FAC0DA2
:10417000BD1DA40FB51F17968C91D8011B968C936B
:10418000F40180819181019691838083F401A08163
:10419000B181A430B10530F3D9011D921C92970171
:1041A0002C5E3D4FB501660F771F6E0D7F1D675B5F
:1041B0007F4F14C0FB01008111810A0F1B1FAC0D42
:1041C000BD1DA40FB51F1B968C91D8011F968C9313
:1041D000F90180819181019691838083F901A08109
:1041E000B181A430B10530F334C0ED91FC91119749
:1041F000E80FF91F258BFB01808191810196918346
:104200008083459710F00CC0B901FB01808191813A
:10421000F601E80FF91FE40FF51F2781233229F774
:10422000F501EE0FFF1FEE0DFF1DE75BFF4F019045
:10423000F081E02D24E132E0E20EF31ED7018D91F2
:104240009C912CEE3DEFE20EF31EE80FF91F83E286
:10425000858B4130510571F4F501EE0FFF1FEE0D16
:10426000FF1DE75BFF4F0190F081E02DD601159611
:104270008C9182AFD501AA0FBB1FAE0DBF1DA75BEE
:10428000BF4FED91FC91119791E093AFF6019580AE
:104290009A94F4E0F91508F4CCC32D913C91119750
:1042A000F6018281F90183AB14AAF6018381F90139
:1042B00082ABED91FC9182A98150823010F493A7DA
:1042C000A0C413A69EC4813009F09BC482A7D2016A
:1042D000ED91FC91D6011A968C918083F2010081B8
:1042E00011810E94B207D801D5966D937D938D936D
:1042F0009C93D897A7014C5E5D4FFA011182108202
:104300009A01B20111C0FB01008111810A0F1B1F2C
:10431000AC0DBD1D8C91D80115968C93F90180814F
:104320009181019691838083F901A081B181A430AC
:10433000B10548F3DA011D921C9297012C5E3D4FA6
:10434000A501440F551F4E0D5F1D475B5F4F12C007
:10435000FA01608171816A0F7B1FAC0DBD1D14963F
:104360008C91DB0111968C93F901808191810196EA
:1043700091838083F901A081B181A430B10540F31C
:1043800060E070E0D6011C968C91833211F461E0FC
:1043900070E0D501AA0FBB1FAE0DBF1DA75BBF4FBD
:1043A0002D913C911197A601460F571FFA01848564
:1043B000F90181A797012C5E3D4FF901118210820E
:1043C0000D911C911197F80181A5813089F0813000
:1043D00020F0823009F089C063C0FA018585F801B8
:1043E000838BED91FC91DA011E968C91848B7DC0BC
:1043F000F901118210824901AD0114C0FA01008156
:1044000011810A0F1B1FAC0DBD1DA60FB71F1D96F6
:104410008C91D8011B968C93F40180819181019637
:1044200091838083F401A081B181A430B10530F380
:10443000D9011D921C9297012C5E3D4FA501440F9E
:10444000551F4E0D5F1D475B5F4F14C0FA01008181
:1044500011810A0F1B1FAC0DBD1DA60FB71F519672
:104460008C91D8011F968C93F901808191810196DE
:1044700091838083F901A081B181A430B10530F32B
:1044800034C0ED91FC911197E80FF91F258BFA01CB
:1044900080819181019691838083459710F00CC0B3
:1044A000A901FA0180819181F601E80FF91FE60F59
:1044B000F71F2585233229F7F501EE0FFF1FEE0DBB
:1044C000FF1DE75BFF4F0190F081E02D24E132E01A
:1044D000E20EF31ED7018D919C912CEE3DEFE20E82
:1044E000F31EE80FF91F83E2858BD501AA0FBB1FCE
:1044F000AE0DBF1DA75BBF4F2D913C911197F601EB
:104500008085F90183AB14AAF6018185F90182AB9C
:10451000ED91FC9182A98150823018F481E083A74B
:1045200001C013A66130710571F4F501EE0FFF1F94
:10453000EE0DFF1DE75BFF4F0190F081E02DD601EE
:104540001B968C9182AFAA0CBB1CAE0CBF1CE9E47D
:10455000F0E0AE0EBF1ED501ED91FC9181E083AF7E
:10456000F60193849A94F4E0F91508F04AC361C205
:104570008250843008F045C32BE132E0E20EF31E96
:10458000D7018C9125EE3DEFE20EF31E882309F052
:1045900066C1D6011B968C918083F2010081118146
:1045A0000E94B207D801D5966D937D938D939C930D
:1045B000D89740E050E0F6018585833211F441E060
:1045C00050E0D501AA0FBB1FAE0DBF1DA75BBF4FAB
:1045D0002D913C911197B601640F751FFB018585E4
:1045E000F90181A797012C5E3D4FF90111821082DC
:1045F0000D911C911197F80181A5813089F08130CE
:1046000020F0823009F089C063C0FB018685F80183
:10461000838BED91FC91DB011F968C91848B7DC087
:10462000F901118210824901BD0114C0FB01008112
:1046300011810A0F1B1FAC0DBD1DA40FB51F1E96C7
:104640008C91D8011B968C93F40180819181019605
:1046500091838083F401A081B181A430B10530F34E
:10466000D9011D921C9297012C5E3D4FB501660F3A
:10467000771F6E0D7F1D675B7F4F14C0FB010081AC
:1046800011810A0F1B1FAC0DBD1DA40FB51F529643
:104690008C91D8011F968C93F901808191810196AC
:1046A00091838083F901A081B181A430B10530F3F9
:1046B00034C0ED91FC911197E80FF91F258BFB0198
:1046C00080819181019691838083459710F00CC081
:1046D000B901FB0180819181F601E80FF91FE40F18
:1046E000F51F2685233229F7F501EE0FFF1FEE0D8A
:1046F000FF1DE75BFF4F0190F081E02D24E132E0E8
:10470000E20EF31ED7018D919C912CEE3DEFE20E4F
:10471000F31EE80FF91F83E2858B4130510571F4D8
:10472000F501EE0FFF1FEE0DFF1DE75BFF4F019040
:10473000F081E02DD6011C968C9182AFD501AA0F95
:10474000BB1FAE0DBF1DA75BBF4FED91FC91119735
:1047500081E083AFF60194849A94F4E0F91508F4AB
:1047600068C197012C5E3D4FF901118210828901C9
:10477000AD0111C0FA01608171816A0F7B1FAC0D20
:10478000BD1D8C91DB0115968C93F8018081918180
:10479000019691838083F801A081B181A430B10595
:1047A00048F3D9011D921C9297012C5E3D4FA50143
:1047B000440F551F4E0D5F1D475B5F4F12C0FA013E
:1047C000608171816A0F7B1FAC0DBD1D14968C91A9
:1047D000DB0111968C93F90180819181019691837F
:1047E0008083F901A081B181A430B10540F3118229
:1047F000108297012C5E3D4FA501440F551FD70134
:10480000A40FB51FA75BBF4F11C06D917C9111978D
:10481000680F791F8C0D9D1DFC018085FB01818730
:10482000F90180819181019691838083F9018081D2
:1048300091818230910548F3D701A40FB51FA75B82
:10484000BF4FED91FC91119713A62D913C911197BB
:10485000F6018285F90182ABED91FC91CDC18230E8
:1048600009F0CFC1D60151968C918083F20100816D
:1048700011810E94B207D801D5966D937D938D93D7
:104880009C93D89740E050E0F6018389833211F47D
:1048900041E050E0D501AA0FBB1FAE0DBF1DA75BC5
:1048A000BF4F2D913C911197B601640F751FFB010D
:1048B0008389F90181A797012C5E3D4FF90111828F
:1048C00010820D911C911197F80181A5813089F01A
:1048D000813020F0823009F089C063C0FB018489F7
:1048E000F801838BED91FC91DB0155968C91848BC3
:1048F0007DC0F901118210824901BD0114C0FB0184
:10490000008111810A0F1B1FAC0DBD1DA40FB51F27
:1049100054968C91D8011B968C93F40180819181DF
:10492000019691838083F401A081B181A430B10507
:1049300030F3D9011D921C9297012C5E3D4FB501B9
:10494000660F771F6E0D7F1D675B7F4F14C0FB01E5
:10495000008111810A0F1B1FAC0DBD1DA40FB51FD7
:1049600058968C91D8011F968C93F9018081918182
:10497000019691838083F901A081B181A430B105B2
:1049800030F334C0ED91FC911197E80FF91F258B9E
:10499000FB0180819181019691838083459710F07E
:1049A0000CC0B901FB0180819181F601E80FF91F6C
:1049B000E40FF51F2489233229F7F501EE0FFF1FBD
:1049C000EE0DFF1DE75BFF4F0190F081E02D24E12C
:1049D00032E0E20EF31ED7018D919C912CEE3DEF5B
:1049E000E20EF31EE80FF91F83E2858B413051057B
:1049F00071F4F501EE0FFF1FEE0DFF1DE75BFF4F9A
:104A00000190F081E02DD60152968C9182AFD501B4
:104A1000AA0FBB1FAE0DBF1DA75BBF4FED91FC9151
:104A2000119781E083AFF60192889A94F4E0F9152A
:104A300018F4C701672D2BC597012C5E3D4FF90176
:104A4000118210828901AD0111C0FA01608171816A
:104A50006A0F7B1FAC0DBD1D8C91DB0115968C93ED
:104A6000F80180819181019691838083F801A08172
:104A7000B181A430B10548F3D9011D921C92970170
:104A80002C5E3D4FA501440F551F4E0D5F1D475B2A
:104A90005F4F12C0FA01608171816A0F7B1FAC0DFC
:104AA000BD1D14968C91DB0111968C93F9018081C8
:104AB0009181019691838083F901A081B181A43015
:104AC000B10540F31182108297012C5E3D4FA50184
:104AD000440F551FB701640F751F675B7F4F12C0EE
:104AE000FB01008111810A0F1B1FAC0DBD1D189623
:104AF0008C91D80119968C93F9018081918101964E
:104B000091838083F901A081B181A230B10540F386
:104B1000F701E40FF51FE75BFF4FA081B18182E051
:104B20009B968C9340815181D6011A968C91DA0123
:104B30009C968C930190F081E02DD6011B968C9170
:104B400085A7F9011182108297012C5E3D4FA501C6
:104B5000440F551F4E0D5F1D475B5F4F12C0FA019A
:104B6000608171816A0F7B1FAC0DBD1D1C968C91FD
:104B7000DB019E968C93F90180819181019691834E
:104B80008083F901A081B181A230B10540F3118287
:104B9000108297012C5E3D4FA501440F551FD70190
:104BA000A40FB51FA75BBF4F11C06D917C911197EA
:104BB000680F791F8C0D9D1DFC018685FB0180AB64
:104BC000F90180819181019691838083F90180812F
:104BD00091818230910548F3F701E40FF51FE75BFF
:104BE000FF4F20813181D60150968C91D901D29608
:104BF0008C930190F081E02D82A9823011F481E044
:104C000083A7072D10E0A92CBB2481E090E068E683
:104C100070E00E94F700AC01F801EE0FFF1FEE0FED
:104C2000FF1FE00FF11FEA0DFB1D3B96EE0FFF1F6C
:104C3000EE0DFF1D518340834115510521F4C7013D
:104C40000E94301A26C42DED31E0E20EF31ED7018A
:104C50009C9123E23EEFE20EF31E913009F0A2C1D7
:104C6000AAE1B2E0EA0EFB1ED7018C9126EE3DEFE1
:104C7000E20EF31E882309F0BCC04A595F4FD601EB
:104C800015968C91DA018C93D60116968C91019031
:104C9000F081E02D833221F4E959FF4F908303C066
:104CA000E959FF4F1082F801EE0FFF1FEE0FFF1FB3
:104CB000E00FF11FEA0DFB1D3B96EE0FFF1FEE0DFF
:104CC000FF1D0190F081E02DE959FF4F6081862E94
:104CD0009924D701AC5EBD4F11961C921E92F8012B
:104CE000EE0FFF1FEE0DFF1DE75BFF4F0190F08100
:104CF000E02D81A5813071F0813018F0823039F4D7
:104D000003C082E090E01CC040E050E00BC080E0B7
:104D100090E016C088E090E013C02F5F3F4F1196DF
:104D20003C932E932D913C911197F601E20FF31FC6
:104D3000E80DF91D87814F5F5F4F833271F7CA011C
:104D4000695F680F262F30E0F701E052FE4F808147
:104D500091818217930710F431832083F801EE0FBD
:104D6000FF1FEE0FFF1FE00FF11FEA0DFB1D3B962B
:104D7000EE0FFF1FEE0DFF1D608171816C597F4F9B
:104D800040EE51E0E40EF51ED7018D919C9140E27A
:104D90005EEFE40EF51E821B930BDB018D939C935B
:104DA000D701AC5EBD4F11961C921E924D01AF0112
:104DB00010C06E0F7F1FEC0DFD1DE20FF31F8081F1
:104DC000FB018083D4018D919C91119701968D9365
:104DD0009C93D401ED91FC91DA016D917C916C5919
:104DE0007F4FDB018D919C9164567040E817F90765
:104DF00000F3EAE1F2E0EE0EFF1ED7019C91E6EE31
:104E0000FDEFEE0EFF1E913009F0CCC0F801EE0F61
:104E1000FF1FEE0FFF1FE00FF11FEA0DFB1D3B967A
:104E2000EE0FFF1FEE0DFF1D208131812A593F4FEC
:104E3000D6011B968C91D9018C93D6011C968C912E
:104E40000190F081E02D833221F4E959FF4F9083E6
:104E500003C0E959FF4F1082F801EE0FFF1FEE0F5C
:104E6000FF1FE00FF11FEA0DFB1D3B96EE0FFF1F2A
:104E7000EE0DFF1D0190F081E02DE959FF4F60819B
:104E8000862E9924D701AC5EBD4F11961C921E92BE
:104E9000F801EE0FFF1FEE0DFF1DE75BFF4F0190C6
:104EA000F081E02D81A5813071F0813018F08230E1
:104EB00039F403C082E090E01CC040E050E00BC039
:104EC00080E090E016C088E090E013C02F5F3F4F75
:104ED00011963C932E932D913C911197F601E20F80
:104EE000F31FE80DF91D85854F5F5F4F833271F722
:104EF000CA01635F680F262F30E0F701E052FE4FD2
:104F0000808191818217930710F431832083F80107
:104F1000EE0FFF1FEE0FFF1FE00FF11FEA0DFB1D4D
:104F20003B96EE0FFF1FEE0DFF1D608171816C59E6
:104F30007F4F40EE51E0E40EF51ED7018D919C911C
:104F400040E25EEFE40EF51E821B930BDB018D93B6
:104F50009C93D701AC5EBD4F11961C921E924D01E1
:104F6000AF0110C06E0F7F1FEC0DFD1DE20FF31F90
:104F70008081FB018083D4018D919C9111970196D2
:104F80008D939C93D401ED91FC91DA016D917C910C
:104F90006C597F4FDB018D919C9164567040E817EE
:104FA000F90700F3EDEDF1E0EE0EFF1ED7018C9155
:104FB000E3E2FEEFEE0EFF1E8250843008F0ABC13C
:104FC0002BE132E0E20EF31ED7018C91E5EEFDEF0E
:104FD000EE0EFF1E882309F0CEC0F801EE0FFF1F72
:104FE000EE0FFF1FE00FF11FEA0DFB1D3B96EE0FCA
:104FF000FF1FEE0DFF1D208131812A593F4FD60141
:105000001C968C91D9018C93D6011D968C910190A0
:10501000F081E02D833229F4E959FF4F81E080834C
:1050200003C0E959FF4F1082F801EE0FFF1FEE0F8A
:10503000FF1FE00FF11FEA0DFB1D3B96EE0FFF1F58
:10504000EE0DFF1D0190F081E02DE959FF4F6081C9
:10505000862E9924D701AC5EBD4F11961C921E92EC
:10506000F801EE0FFF1FEE0DFF1DE75BFF4F0190F4
:10507000F081E02D81A5813071F0813018F082300F
:1050800039F403C082E090E01CC040E050E00BC067
:1050900080E090E016C088E090E013C02F5F3F4FA3
:1050A00011963C932E932D913C911197F601E20FAE
:1050B000F31FE80DF91D86854F5F5F4F833271F74F
:1050C000CA01625F680F262F30E0F701E052FE4F01
:1050D000808191818217930710F431832083F80136
:1050E000EE0FFF1FEE0FFF1FE00FF11FEA0DFB1D7C
:1050F0003B96EE0FFF1FEE0DFF1D608171816C5915
:105100007F4F40EE51E0E40EF51ED7018D919C914A
:1051100040E25EEFE40EF51E821B930BDB018D93E4
:105120009C93D701AC5EBD4F11961C921E925D01FF
:10513000AF0110C06E0F7F1FEC0DFD1DE20FF31FBE
:105140008081FB018083D5018D919C9111970196FF
:105150008D939C93D501ED91FC91DA016D917C9139
:105160006C597F4FDB018D919C9164567040E8171C
:10517000F90700F3D0C0823009F0CDC0F801EE0F7E
:10518000FF1FEE0FFF1FE00FF11FEA0DFB1D3B9607
:10519000EE0FFF1FEE0DFF1D208131812A593F4F79
:1051A000D60152968C91D9018C93D60153968C914D
:1051B0000190F081E02D833229F4E959FF4F81E01D
:1051C000808303C0E959FF4F1082F801EE0FFF1FE3
:1051D000EE0FFF1FE00FF11FEA0DFB1D3B96EE0FD8
:1051E000FF1FEE0DFF1D0190F081E02DE959FF4FEB
:1051F0006081862E9924D701AC5EBD4F11961C921A
:105200001E92F801EE0FFF1FEE0DFF1DE75BFF4F33
:105210000190F081E02D81A5813071F0813018F08E
:10522000823039F403C082E090E01CC040E050E0DE
:105230000BC080E090E016C088E090E013C02F5FC4
:105240003F4F11963C932E932D913C911197F6016F
:10525000E20FF31FE80DF91D87894F5F5F4F83321F
:1052600071F7CA016C5E680F262F30E0F701E0523B
:10527000FE4F808191818217930710F43183208340
:10528000F801EE0FFF1FEE0FFF1FE00FF11FEA0DF9
:10529000FB1D3B96EE0FFF1FEE0DFF1D6081718120
:1052A0006C597F4F40EE51E0E40EF51ED7018D9111
:1052B0009C9140E25EEFE40EF51E821B930BDB0136
:1052C0008D939C93D701AC5EBD4F11961C921E929C
:1052D0005D01AF0110C06E0F7F1FEC0DFD1DE20FD1
:1052E000F31F8081FB018083D5018D919C911197E3
:1052F00001968D939C93D501ED91FC91DA016D910E
:105300007C916C597F4FDB018D919C91645670406C
:10531000E817F90700F3F701E85BFF4F80818F5F23
:105320008083853009F41082000F111F0E0D1F1DA0
:10533000075B1F4FD801ED91FC9193AD82AD98179B
:1053400011F481E081AF99E4C92ED12CCE0CDF1C81
:105350006624772487010C5E1D4F83E5282E312CAF
:105360002E0C3F1CF701E95BFD4FFA83E98397019F
:10537000275B3D4F3C832B83A701415A5F4F5E83E0
:105380004D83C70183529E4F98878F83D701A55EB7
:10539000BD4FBA87A987F701E752FE4FFC87EB871D
:1053A000D8011D921C920E94B207D601ED91FC918A
:1053B000309709F48FC325A936A947A950AD121615
:1053C0001306140615060CF085C3621B730B840BC1
:1053D000950B69557B41804090400CF037C381ADFF
:1053E000813009F000C3B62CE981FA816082AB817B
:1053F000BC811C92ED81FE8180818F5F8083D8010A
:105400001D921C920FC0F901BA96EE0FFF1FEE0D10
:10541000FF1D80819181892B59F02F5F3F4FF8014B
:1054200031832083D8012D913C912530310558F3EB
:10543000E22FAD81BE818C91853090F0AB85BC852B
:105440008C91813029F0813038F0823049F41DC0D0
:10545000C7010E94971903C0C7010E942A19E82FAB
:105460004E2E552481E090E064EB70E00E94F7003E
:10547000AC019201265D3F4F220F331F2E0D3F1DC1
:10548000F90191838083009731F4C7016B2D0E944D
:10549000CC188FEF2EC3D1018C9181508C93455540
:1054A0005F4FD601ED91FC9185A896A8A7A8B0AC56
:1054B000DA018D929D92AD92BC9213974F5250405B
:1054C0008081FA018083D901ED91FC91E955FF4F6C
:1054D000D6018D919C91DC019A968C918083F90183
:1054E000A081B181F60180819181FC0183A518968C
:1054F0008C93AF81B8858C91813009F060C0F9013F
:10550000A081B181A955BF4F8C91A75AB04081307D
:1055100009F048C0D8011D921C92A90116C0FA01D9
:10552000A081B181A80FB91FAF57BF4FF6012081ED
:105530003181280F391FF90185818C93D8018D9114
:105540009C91119701968D939C93F8018081918194
:105550008430910520F311821082A201465D5F4FD5
:10556000440F551F4E0D5F1D16C0FA01A081B18179
:10557000A80FB91FA358BF4FF60120813181280F12
:10558000391FF90181818C93D8018D919C911197DC
:1055900001968D939C93F8018081918184309105CF
:1055A00020F36EC0882309F06BC0AB57BF4FF601E4
:1055B00080819181FC0181858C93D90156C0F801CD
:1055C00011821082A90116C0FA01A081B181A80F31
:1055D000B91FAF57BF4FF60120813181280F391F06
:1055E000F90185818C93D8018D919C911197019639
:1055F0008D939C93F801808191818430910520F3F3
:10560000118210829201265D3F4FB901660F771F0C
:105610006E0D7F1D13C0DB01ED91FC91E80FF91FAA
:10562000E358FF4F480F591FDA0111968C91808380
:10563000F80180819181019691838083D8018D91B9
:105640009C91F601408151818430910520F3D9016C
:10565000AA0FBB1FAE0DBF1D2D913C9111972B576B
:105660003F4FFA018185F9018083ED91FC91EA5762
:10567000FF4FD6018D919C91DC011A968C9180830D
:10568000F601808191813AE2A32EB12CA40CB51CC5
:10569000AA0CBB1CAE0CBF1CD501ED91FC91EA55C8
:1056A000FF4FDC01DA966C91DA97D3968D919C913D
:1056B000D49770E00E9497506083D501ED91FC91E2
:1056C000E855FF4FD6018D919C91DC0199968C9104
:1056D0008083F501A081B181A855BF4F8C91A85A54
:1056E000B0408130D9F0813020F0823009F08BC099
:1056F0005DC0A157BF4FF60180819181FC01838974
:105700008C93D501ED91FC91E057FF4FD6018D911F
:105710009C91DC0154968C91808375C0F8011182B4
:105720001082A50116C0FA01A081B181A80FB91F8E
:10573000A557BF4FF60120813181280F391FF9018C
:1057400083858C93D8018D919C91119701968D93AF
:105750009C93F801808191818430910520F311821E
:105760001082A201465D5F4F440F551F4E0D5F1D15
:1057700016C0FA01A081B181A80FB91FA957BF4F68
:10578000F60120813181280F391FF90187858C931B
:10579000D8018D919C91119701968D939C93F8015E
:1057A000808191818430910520F32DC0D8011D9214
:1057B0001C92A501F80180819181FA01A081B1813B
:1057C000A80FB91FAF56BF4FF60120813181280FB6
:1057D000391FF90185898C93D8018D919C9111977E
:1057E00001968D939C93D601ED91FC91E80FF91FE2
:1057F00025892332F9F6D501ED91FC91E80FF91FC7
:10580000EF56FF4F2083D601ED91FC9182AD682FBA
:1058100070E061507040F301EE0FFF1FEE0FFF1FAD
:10582000E60DF71DE60FF71F3B96EE0FFF1FEE0D7F
:10583000FF1DF88BEF8788249924AA24BB24A2019A
:10584000465D5F4F440F551F4E0D5F1D32C0D8019E
:105850001D921C9216C0FA0120813181280F391F38
:105860002A0D3B1DA80FB91F8C91D9011C968C9352
:105870000894811C911CF80180819181019691838B
:105880008083D8018D919C91EF85F889A081B181A9
:10589000AC59BF4F2D913C911197A456B04082173F
:1058A0009307C8F2A20EB31E615070403297F88B76
:1058B000EF87FFEF6F3F7F0751F69201265D3F4F65
:1058C000220F331F2E0D3F1DF901A081B181A05978
:1058D000BF4F11969C928E92A057B040E985FA85F1
:1058E0008081823009F044C0AC58BF4FF6018081FE
:1058F0009181FC0184A58C93D901ED91FC91EB5829
:10590000FF4FD6018D919C91DC019D968C918083F7
:10591000D901ED91FC91EA58FF4FD6018D919C91F0
:10592000DC019E968C918083D901ED91FC91E95820
:10593000FF4FD6018D919C91DC019F968C918083C5
:10594000D901ED91FC91E858FF4FD6018D919C91C2
:10595000DC01D0968C918083D901ED91FC91E758C0
:10596000FF4FD6018D919C91DC01D1968C91808363
:10597000F801118210825301AA0CBB1CAA0CBB1C9B
:10598000A60CB71C1CC0EA0DFB1D3B96EE0FFF1FBB
:10599000EE0DFF1D808191810E94BD01D8018D9186
:1059A0009C911197F501E80FF91F3B96EE0FFF1F31
:1059B000EE0DFF1D1182108201968D939C93D801EC
:1059C000ED91FC91E530F105F0F2D601ED91FC91FD
:1059D00015AA16AA17AA10AECF010E94BD01F601A2
:1059E0001182108277C092AD83AD981709F072C012
:1059F000D8011D921C925301AA0CBB1CAA0CBB1C03
:105A0000A60CB71C1CC0EA0DFB1D3B96EE0FFF1F3A
:105A1000EE0DFF1D808191810E94BD01F801808102
:105A20009181F501E80FF91F3B96EE0FFF1FEE0D78
:105A3000FF1D118210820196D8018D939C93D8018D
:105A4000ED91FC91E530F105F0F22DC0F8011182E5
:105A500010825301AA0CBB1CAA0CBB1CA60CB71CC1
:105A60001CC0EA0DFB1D3B96EE0FFF1FEE0DFF1D48
:105A7000808191810E94BD01D8018D919C911197E7
:105A8000F501E80FF91F3B96EE0FFF1FEE0DFF1D0E
:105A90001182108201968D939C93D801ED91FC9117
:105AA000E530F105F0F2D601ED91FC9115AA16AAA8
:105AB00017AA10AECF010E94BD01F601118210821B
:105AC000D1018C9181508C93E981FA816082AB8104
:105AD000BC811C920894611C711CE2E0F0E0CE0EC7
